:100000000C9462000C949E030C94C5030C948A001B
:100010000C948A000C948A000C948A000C948A0038
:100020000C948A000C948A000C948A000C948A0028
:100030000C948A000C948A000C948A000C948A0018
:100040000C94EC030C948A000C948A000C948A00A3
:100050000C948A000C948A000C948A000C948A00F8
:100060000C94A1010C948A00000000080002010019
:100070000003040700000000000000000102040863
:100080001020408001020408102001020408102002
:10009000040404040404040402020202020203032E
:1000A00003030303000000002300260029000000D2
:1000B0000000250028002B0000000000240027007D
:1000C0002A00690311241FBECFEFD8E0DEBFCDBFE9
:1000D00011E0A0E0B1E0E4E8FAE002C005900D9282
:1000E000A632B107D9F721E0A6E2B1E001C01D9226
:1000F000A23FB207E1F710E0C2E6D0E004C02197CA
:10010000FE010E943A05C136D107C9F70E946E036D
:100110000C9440050C940000CF93DF9381E00E9483
:100120001105EC0180E20E941105CC0FDD1F8C2B24
:100130009D2BE0912601F0912701EE0FFF1FEE0F9E
:10014000FF1FE050FF4FE80FF91F2081253051F4C9
:1001500020912801309129012F5F3F4F30932901D1
:10016000209328019093270180932601DF91CF915E
:10017000089561E08DE00E94A60461E08EE00E9497
:10018000A60461E089E00E94A60461E08AE00E9482
:10019000A60460E083E10E94A60441E050E06CE820
:1001A00070E080E20E947E0341E050E06CE870E085
:1001B00081E00C947E0361E08DE00E94E20460E047
:1001C0008EE00E94E20460E089E00E94E20460E0C8
:1001D0008AE00C94E20460E08DE00E94E20460E0BA
:1001E0008EE00E94E20461E089E00E94E20460E0A7
:1001F0008AE00C94E204CF92DF92EF92FF920E9489
:10020000360468577C4E6B01770FEE08FF080E949A
:1002100036046C157D058E059F0518F40E94DB00E1
:10022000F6CF0E94360468577C4E6B01770FEE08BC
:10023000FF080E9436046C157D058E059F0588F425
:1002400060E08DE00E94E20461E08EE00E94E20442
:1002500060E089E00E94E20460E08AE00E94E2043B
:10026000E8CF0E94360468577C4E6B01770FEE088A
:10027000FF080E9436046C157D058E059F0518F455
:100280000E94EB00F6CF0E94360468577C4E6B014B
:10029000770FEE08FF080E9436046C157D058E0569
:1002A0009F0588F460E08DE00E94E20460E08EE04B
:1002B0000E94E20460E089E00E94E20461E08AE0DA
:1002C0000E94E204E8CFFF90EF90DF90CF900C9473
:1002D000360440914C01262F30E0240F311D21328D
:1002E0003105DCF4209197012430C9F4FC0180E051
:1002F00090E0861758F430914C012191DC01A25B0B
:10030000BE4FA30FB11D2C930196F3CF80914C01EA
:10031000680F60934C0180E0089581E0089582E0C9
:10032000089585ED8093BC008091BC0084FDFCCFD6
:1003300010929701089585EC8093BC00109297016C
:1003400008951F920F920FB60F9211242F933F938F
:100350004F935F936F937F938F939F93AF93BF93CD
:10036000EF93FF938091B900887F803609F49EC097
:1003700078F5883209F45DC090F4803109F456C0F4
:1003800038F4882309F4F5C0883009F44FC0F5C06B
:10039000883109F44EC0803209F45FC0EEC0803469
:1003A00009F46AC058F4803309F457C0883309F05F
:1003B000E4C080932A010E949B01DFC0803509F4CC
:1003C0004FC0883509F45DC0883409F0D6C0D3C069
:1003D000883909F4C4C0A8F4883709F467C038F430
:1003E000883609F463C0803709F460C0C6C0883815
:1003F00009F4B5C0803909F45FC0803809F0BDC088
:100400005BC0803B09F483C038F4803A09F466C0CD
:10041000883A09F47CC0B1C0803C09F4A4C0883C8F
:1004200009F4A1C0883B09F487C0A7C08091960158
:1004300010C090916F0180916E01981770F5E09156
:100440006F0181E08E0F80936F01F0E0E059FE4F65
:1004500080818093BB0085EC83C080932A018BC090
:10046000E0916F0181E08E0F80936F018091BB005E
:10047000F0E0E059FE4F808390916F0180916E0112
:100480006BC0E0916F0181E08E0F80936F018091CE
:10049000BB00F0E0E059FE4F80838091950181110F
:1004A0006AC081E08093940184EA5EC083E0809317
:1004B000970110922B01CFCF80912B01803208F051
:1004C0004EC0E0912B0181E08E0F80932B01809133
:1004D000BB00F0E0E45DFE4F8083BDCF0E949B0136
:1004E00080912B01803230F4E0912B01F0E0E45D4B
:1004F000FE4F108260912B0170E0E0919001F0912D
:1005000091018CE291E0099510922B0136C084E0B4
:100510008093970110924D0110924C01E09192014D
:10052000F0919301099580914C01811105C081E002
:1005300080934C0110924E01E0914D0181E08E0FAD
:1005400080934D01F0E0E25BFE4F80818093BB0021
:1005500090914D0180914C01981708F47CCF85E86B
:100560008093BC000AC085EC8093BC001092970178
:1005700004C010922A010E949101FF91EF91BF9156
:10058000AF919F918F917F916F915F914F913F912B
:100590002F910F900FBE0F901F90189580E090E064
:1005A00008958091C70190E02091C801821B9109B4
:1005B00008959091C8018091C701981750F4E92FD0
:1005C000F0E0E753FE4F208130E09F5F9093C80139
:1005D00002C02FEF3FEFC9010895E091C80180915B
:1005E000C701E81730F4F0E0E753FE4F808190E058
:1005F00008958FEF9FEF08950895CF92DF92EF92C5
:10060000FF920F931F93CF93DF937C01CB018A015D
:100610002091A401222389F0EB016B01C40ED51EA9
:10062000CC15DD0569F06991D701ED91FC91019040
:10063000F081E02DC7010995F3CF642F0E94690175
:10064000C801DF91CF911F910F91FF90EF90DF9044
:10065000CF900895CF93DF931F92CDB7DEB7698314
:100660002091A4012223D1F02091A501203240F055
:1006700021E030E0FC013383228380E090E015C06C
:100680008091A601E82FF0E0E955FE4F9981908313
:100690008F5F8093A6018093A50105C061E0CE0124
:1006A00001960E94690181E090E00F90DF91CF9167
:1006B0000895FC011382128288EE93E0A0E0B0E07E
:1006C00084839583A683B78388E191E091838083B7
:1006D000089588E991E00C94590308950E9442041A
:1006E0000E946D030E94B900C0E0D0E00E94FB00B0
:1006F0002097E1F30E940000F9CF08958230E8F4DA
:10070000E82FF0E0EE0FFF1FE05FFE4F7183608384
:10071000813041F0809169008C7F482B40936900C3
:10072000E89A089580916900837F440F551F440F14
:10073000551F482B40936900E99A08951F920F9224
:100740000FB60F9211242F933F934F935F936F93A4
:100750007F938F939F93AF93BF93EF93FF93E0911A
:100760001001F09111010995FF91EF91BF91AF91A7
:100770009F918F917F916F915F914F913F912F91B9
:100780000F900FBE0F901F9018951F920F920FB6EB
:100790000F9211242F933F934F935F936F937F9307
:1007A0008F939F93AF93BF93EF93FF93E0911201C9
:1007B000F09113010995FF91EF91BF91AF919F9136
:1007C0008F917F916F915F914F913F912F910F90FA
:1007D0000FBE0F901F9018951F920F920FB60F9299
:1007E00011242F933F938F939F93AF93BF93809147
:1007F000EA019091EB01A091EC01B091ED013091F3
:10080000E90123E0230F2D3720F40196A11DB11D2E
:1008100005C026E8230F0296A11DB11D2093E90112
:100820008093EA019093EB01A093EC01B093ED016A
:100830008091EE019091EF01A091F001B091F10152
:100840000196A11DB11D8093EE019093EF01A0933D
:10085000F001B093F101BF91AF919F918F913F91C2
:100860002F910F900FBE0F901F9018952FB7F894EF
:100870006091EA017091EB018091EC019091ED01A2
:100880002FBF0895789484B5826084BD84B581605B
:1008900084BD85B5826085BD85B5816085BDEEE688
:1008A000F0E0808181608083E1E8F0E01082808167
:1008B00082608083808181608083E0E8F0E08081D5
:1008C00081608083E1EBF0E0808184608083E0EBF5
:1008D000F0E0808181608083EAE7F0E080818460DD
:1008E0008083808182608083808181608083808139
:1008F000806880831092C1000895833081F028F4CD
:10090000813099F08230A1F008958730A9F08830C5
:10091000B9F08430D1F4809180008F7D03C0809144
:1009200080008F7780938000089584B58F7702C010
:1009300084B58F7D84BD08958091B0008F7703C00A
:100940008091B0008F7D8093B0000895CF93DF93A6
:1009500090E0FC01E458FF4F2491FC01E057FF4F69
:100960008491882361F190E0880F991FFC01E8547D
:10097000FF4FC591D491FC01E255FF4FA591B49171
:10098000611109C09FB7F8948881209582238883DC
:10099000EC912E230BC0623061F49FB7F8948881EC
:1009A000322F309583238883EC912E2B2C939FBF7D
:1009B00006C08FB7F894E8812E2B28838FBFDF9174
:1009C000CF9108951F93CF93DF93282F30E0F90143
:1009D000E859FF4F8491F901E458FF4FD491F90190
:1009E000E057FF4FC491CC23C1F0162F81110E9414
:1009F0007D04EC2FF0E0EE0FFF1FE255FF4FA591B5
:100A0000B4919FB7F894111104C08C91D095D8235C
:100A100002C0EC91DE2BDC939FBFDF91CF911F9141
:100A20000895CF93DF93282F30E0F901E859FF4F65
:100A30008491F901E458FF4FD491F901E057FF4F39
:100A4000C491CC2391F081110E947D04EC2FF0E041
:100A5000EE0FFF1FEC55FF4FA591B491EC91ED23E4
:100A600081E090E021F480E002C080E090E0DF913E
:100A7000CF910895EE0FFF1F0590F491E02D09949A
:040A8000F894FFCF18
:100A840000FF0105010005FFFF0500010501FF004E
:100A94007D037D03000000002A03FD02CE02FC0258
:060AA400D102D902ED02AF
:00000001FF
