:100000000C94EE000C9416010C9416010C9416013D
:100010000C9416010C9416010C9416010C94160104
:100020000C9416010C9416010C9473100C94020F8E
:100030000C9416010C9416010C9416010C941601E4
:100040000C9416010C9416010C9416010C941601D4
:100050000C9416010C9416010C9416010C941311B7
:100060000C9416010C94D90B0C940B0C0C941601E7
:100070000C9416010C9416010C9416010C941601A4
:100080000C9416010C9416010C9416010C94160194
:100090000C94ED190C9416010C9416010C94160195
:1000A0000C9416010C9416010C941601741277121C
:1000B00066126A1270129812981298127B127F12AE
:1000C000831289128D129812931212010002EF020C
:1000D00001404123378000010102030112010002A7
:1000E00000000040412337800001010203014172FA
:1000F0006475696E6F204C4C430041726475696E83
:100100006F204D6963726F0004030904070605043C
:100110000100080A0B0C0D090000000200090F0085
:1001200000030401000C00000000000000000000BB
:100130000000000000000004080201104080401090
:1001400020408040800802040180402010020110FD
:10015000801020404020040404040403040502022B
:100160000202040302020202060606060606040450
:10017000020202040400000000250028002B002ECB
:1001800000310000000000240027002A002D00306C
:1001900000080B0002020201000904000001020233
:1001A00000000524001001052401010104240206B9
:1001B0000524060001070581031000400904010021
:1001C000020A000000070502024000000705830242
:1001D000400000004E073B0CEC17DA1811241FBE3C
:1001E000CFEFDAE0DEBFCDBF11E0A0E0B1E0E8E89C
:1001F000F6E302C005900D92A03FB107D9F724E0C5
:10020000A0EFB1E001C01D92A53BB207E1F710E0FD
:10021000CEEED0E004C02197FE010E943C1BCA3EF6
:10022000D107C9F70E94690C0C94421B0C94000082
:100230008EBD00000DB407FEFDCF8EB508956A9AFD
:1002400061E088E00E94991261E087E00E949912C3
:10025000729A61E088E00E94D51261E087E00E9416
:10026000D5120E94BF16729888E80E94180183E098
:100270000E941801729A60E088E00E94D51288E816
:100280000E94180183E00E94180161E088E00E944A
:10029000D51260E087E00E94D51288E80E9418011C
:1002A00083E00E94180161E087E00C94D512CF92A0
:1002B000DF92EF92FF920F931F93CF93DF938130E2
:1002C0009105D1F4729880E60E94180180E00E94A6
:1002D0001801C82ED12C80E00E941801E82EF12CC4
:1002E00080E00E941801082F10E080E00E941801B1
:1002F000C82FD0E0729A42C082309105F1F460E0DC
:1003000088E00E94D51280E60E94180180E00E94D9
:100310001801C82ED12C80E00E941801E82EF12C83
:1003200080E00E941801082F10E080E00E94180170
:10033000C82FD0E061E088E01FC00397F9F460E0C7
:1003400087E00E94D51280E60E94180180E00E949A
:100350001801C82ED12C80E00E941801E82EF12C43
:1003600080E00E941801082F10E080E00E94180130
:10037000C82FD0E061E087E00E94D5127C2D66276F
:100380006E0D7F1DCB01A0E0B0E0BA2FA92F982FF2
:100390008827800F911FA11DB11DBA2FA92F982F5B
:1003A0008827BC01CD016C0F7D1F811D911DDF9140
:1003B000CF911F910F91FF90EF90DF90CF90089514
:1003C000729888E90E94180180E00E94180180E07C
:1003D0000E94180180E00E94180180E00E9418012C
:1003E000729A84E690E00E94CA11729880EE0E9490
:1003F0001801729A60E088E00E94D51288E90E9494
:10040000180180E00E94180180E00E94180180E03D
:100410000E94180180E00E94180161E088E00E94BB
:10042000D51284E690E00E94CA1160E088E00E9444
:10043000D51280EE0E94180161E088E00E94D5127A
:1004400060E087E00E94D51288E90E94180180E0F0
:100450000E94180180E00E94180180E00E941801AB
:1004600080E00E94180161E087E00E94D51284E6D6
:1004700090E00E94CA1160E087E00E94D51280EEF1
:100480000E94180161E087E00C94D5120F931F932E
:100490006AE070E085E993E00E94E01763E078E0AD
:1004A00085E993E00E94E21768E678E085E993E049
:1004B0000E94E71726E040E855E260E070E083EE36
:1004C00092E00E94740B289A61E084E00E949912E5
:1004D00061E085E00E94991261E086E00E94991235
:1004E00061E089E00E94991261E08CE00E9499121B
:1004F00061E08AE00E94991261E070E087E792E093
:100500000E94F01562E070E087E792E00E94E2143A
:1005100000E010E02FE733E440E050E06FE773ECD9
:1005200087E792E00E942A1561E070E080E492E0A3
:100530000E94F01562E070E080E492E00E94E21414
:1005400000E010E02FE733E440E050E06FE773ECA9
:1005500080E492E00E942A1561E070E089E092E078
:100560000E94F01562E070E089E092E00E94E214DF
:1005700000E010E02FE733E440E050E06FE773EC79
:1005800089E092E00E942A150E941F0167E571E050
:1005900083EE92E00E94BF0C0E94E0016FE671E0E2
:1005A00083EE92E00E94BF0CE0E8F0E08081816081
:1005B0008083A1E8B0E08C9188608C938C918160FD
:1005C0008C93808180688083808180628083E0E971
:1005D000F0E0808181608083A1E9B0E08C91886047
:1005E0008C938C9181608C938081806880831F9133
:1005F0000F9108952F923F924F925F926F927F9248
:100600008F929F92AF92BF92CF92DF92EF92FF9222
:100610000F931F93CF93DF931092F6011092F50181
:100620001092F40161E084E00E94D51261E086E05E
:100630000E94D51261E08CE00E94D51220E1222EAA
:1006400027E2322E0FEF10E08091F601882309F4A3
:1006500059C08091F501882309F454C08091F401B8
:10066000882309F44FC00E94E0016FE671E083EE39
:1006700092E00E94BF0C60913D0170913E01072EF7
:10068000000C880B990B0E948C092AE037ED43E29D
:100690005CEB0E94410A20913F0130914001409162
:1006A0004101509142010E94410A6B017C0160911D
:1006B0003B0170913C01072E000C880B990B0E94A6
:1006C0008C099B01AC01C701B6010E94410A6093ED
:1006D000CF027093D0028093D1029093D2026093A4
:1006E000CB027093CC028093CD029093CE026093A4
:1006F000C7027093C8028093C9029093CA0200EDAA
:1007000017E026C182E10E942B1290930802809389
:10071000070283E10E942B12909306028093050248
:1007200084E10E942B12EC01909304028093030257
:10073000C0900201D0900301E0900401F090050107
:10074000A701960160E070E080E89FE30E947008D6
:100750004B015C016091070270910802072E000CAA
:10076000880B990B0E948C09A70196010E94410AEF
:100770002B013C012091FF013091000240910102C8
:1007800050910202C501B4010E94410A9B01AC01D3
:10079000C301B2010E9471086093FF0170930002CF
:1007A000809301029093020260910502709106020B
:1007B000072E000C880B990B0E948C09A70196014B
:1007C0000E94410A2B013C012091FB013091FC0168
:1007D0004091FD015091FE01C501B4010E94410A02
:1007E0009B01AC01C301B2010E9471086093FB013F
:1007F0007093FC018093FD019093FE012091F7011D
:100800003091F8014091F9015091FA01C501B4010C
:100810000E94410A4B015C01BE01DD0F880B990B60
:100820000E948C09A70196010E94410A9B01AC011C
:10083000C501B4010E9471086093F7017093F8013B
:100840008093F9019093FA019FEAE92E92E0F92E44
:10085000C0E0D0E02196CE010E9457010E948C0991
:10086000F70161937193819391937F01C330D10517
:1008700089F720E030E04FE254E46091FF0170918D
:10088000000280910102909102020E943C0A181617
:1008900024F4F1E0F093F60102C01092F60120E09A
:1008A00030E04FE254E46091FB017091FC018091D3
:1008B000FD019091FE010E943C0A181624F481E08B
:1008C0008093F50102C01092F50120E030E04FE284
:1008D00054E46091F7017091F8018091F9019091D1
:1008E000FA010E943C0A181624F4E1E0E093F401B6
:1008F00002C01092F4018091F601811105C010939D
:1009000099000093980004C01092990010929800EA
:100910008091F501811105C0109389000093880032
:1009200004C010928900109288008091F401811116
:1009300005C010938B0000938A0004C010928B00B6
:1009400010928A00F1E02F1A310809F07DCE8BCE8B
:100950008FEAE82E82E0F82EC0E0D0E02196CE01AA
:100960000E9457010E948C09F70161937193819352
:1009700091937F01C330D10589F787E792E00E9408
:10098000041380E492E00E94041389E092E00E9444
:10099000041320E030E0A9016091DB027091DC02D9
:1009A0008091DD029091DE020E94DD0887FF02C087
:1009B00060E001C061E084E00E94D51220E030E0F8
:1009C000A9016091D7027091D8028091D9029091CB
:1009D000DA020E94DD0887FF02C060E001C061E02A
:1009E00086E00E94D51220E030E0A9016091D30298
:1009F0007091D4028091D5029091D6020E94DD08B8
:100A000087FF02C060E001C061E08CE00E94D51267
:100A10000150110909F09CCF0E94E00163E871E0E8
:100A200083EE92E00E94BF0C20912F0130913001A3
:100A30004091310150913201609133017091340144
:100A400080913501909136010E9470086B017C0104
:100A500020912B0130912C0140912D0150912E01BC
:100A600060913701709138018091390190913A017C
:100A70000E94410A9B01AC01C701B6010E94E20835
:100A80006B017C0160913D0170913E01072E000CCD
:100A9000880B990B0E948C0920913F0130914001F5
:100AA00040914101509142010E94410A4B015C0179
:100AB00060913B0170913C01072E000C880B990B53
:100AC0000E948C099B01AC01C501B4010E94410A3E
:100AD0009B01AC01C701B6010E94410A6093F0017D
:100AE0007093F1018093F2019093F3016093CF0230
:100AF0007093D0028093D1029093D2026093CB0284
:100B00007093CC028093CD029093CE026093C70283
:100B10007093C8028093C9029093CA0281E090E06A
:100B20009093010180930001DF91CF911F910F916C
:100B3000FF90EF90DF90CF90BF90AF909F908F90FD
:100B40007F906F905F904F903F902F9008954F92BD
:100B50005F926F927F928F929F92AF92BF92CF924D
:100B6000DF92EF92FF920F931F93CF93DF938091C9
:100B7000000190910101892B41F466E971E083EE57
:100B800092E00E94BF0C0E94FA028FEAE82E82E0F7
:100B9000F82E0BEB12E0C0E0D0E02196CE010E94CF
:100BA00057010E948C092091F0013091F101409190
:100BB000F2015091F3010E947108F7016193719362
:100BC000819391937F010E945409F801708361839E
:100BD0000E5F1F4FC330D10501F787E792E00E94F7
:100BE000041380E492E00E94041389E092E00E94E2
:100BF000041320E030E0A9016091DB027091DC0277
:100C00008091DD029091DE020E94DD0887FF02C024
:100C100060E001C061E084E00E94D51220E030E095
:100C2000A9016091D7027091D8028091D902909168
:100C3000DA020E94DD0887FF02C060E001C061E0C7
:100C400086E00E94D51220E030E0A9016091D30235
:100C50007091D4028091D5029091D6020E94DD0855
:100C600087FF02C060E001C061E08CE00E94D51205
:100C700083B1817080930601811104C081E080936B
:100C8000AE0202C01092AE02C090DB02D090DC0235
:100C9000E090DD02F090DE0220E030E0A901C70123
:100CA000B6010E943C0A18161CF4C701B60103C025
:100CB000C701B60190580E945B0970939900609338
:100CC0009800C090D702D090D802E090D902F0905E
:100CD000DA0220E030E0A901C701B6010E943C0A17
:100CE00018161CF4C701B60103C0C701B60190581D
:100CF0000E945B097093890060938800C090D302C2
:100D0000D090D402E090D502F090D60220E030E0FE
:100D1000A901C701B6010E943C0A18161CF4C701BC
:100D2000B60103C0C701B60190580E945B097093D9
:100D30008B0060938A0082E10E942B12909308023C
:100D40008093070283E10E942B1290930602809306
:100D5000050284E10E942B12EC019093040280931F
:100D60000302C0900201D0900301E0900401F090D2
:100D70000501A701960160E070E080E89FE30E9412
:100D800070084B015C016091070270910802072E08
:100D9000000C880B990B0E948C09A70196010E94F8
:100DA000410A2B013C012091FF013091000240914A
:100DB000010250910202C501B4010E94410A9B0147
:100DC000AC01C301B2010E9471086093FF017093EE
:100DD00000028093010290930202609105027091DB
:100DE0000602072E000C880B990B0E948C09A701A4
:100DF00096010E94410A2B013C012091FB01309198
:100E0000FC014091FD015091FE01C501B4010E9419
:100E1000410A9B01AC01C301B2010E9471086093B9
:100E2000FB017093FC018093FD019093FE012091E2
:100E3000F7013091F8014091F9015091FA01C50193
:100E4000B4010E94410A4B015C01BE01DD0F880B19
:100E5000990B0E948C09A70196010E94410A9B01EF
:100E6000AC01C501B4010E9471086093F701709351
:100E7000F8018093F9019093FA01DF91CF911F91CE
:100E80000F91FF90EF90DF90CF90BF90AF909F9029
:100E90008F907F906F905F904F900895AF92BF9228
:100EA000CF92DF92EF92FF920F931F9360913D01DB
:100EB00070913E01072E000C880B990B0E948C0943
:100EC00020913F01309140014091410150914201F8
:100ED0000E94410A9B01AC0160E070E084EB93E466
:100EE0000E94E2086093DF027093E0028093E102C7
:100EF0009093E202A0902301B0902401C0902501BC
:100F0000D0902601E0902701F0902801009129015E
:100F100010912A011F921F92809122018F9380913C
:100F200021018F93809120018F9380911F018F93D6
:100F30002FEC32E04BED52E06FEA72E087E792E08F
:100F40000E944216A0901701B0901801C09019019C
:100F5000D0901A01E0901B01F0901C0100911D013E
:100F600010911E011F921F92809116018F93809104
:100F700015018F93809114018F93809113018F93AA
:100F80002BEC32E047ED52E063EB72E080E492E05C
:100F90000E944216A0900B01B0900C01C0900D0170
:100FA000D0900E01E0900F01F0901001009111011E
:100FB000109112011F921F9280910A018F938091CC
:100FC00009018F93809108018F93809107018F937E
:100FD00027EC32E043ED52E067EB72E089E092E00B
:100FE0000E9442168DB79EB742960FB6F8949EBFE8
:100FF0000FBE8DBF1F910F91FF90EF90DF90CF90AC
:10100000BF90AF900895CF93DF93C1ECD2E085E914
:1010100093E00E94F516892B99F085E993E00E94F0
:10102000FD169E01215C32402630310514F4888380
:1010300005C0992790930101809300012196E7CF85
:101040006091C10270E0762F66278091C202680F1E
:10105000711D072E000C880B990B0E948C09609360
:10106000CF027093D0028093D1029093D20260910C
:10107000C30270E0762F66278091C402680F711D4D
:10108000072E000C880B990B0E948C096093CB02F1
:101090007093CC028093CD029093CE026091C502F2
:1010A00070E0762F66278091C602680F711D072EAB
:1010B000000C880B990B0E948C096093C7027093F7
:1010C000C8028093C9029093CA02DF91CF9108951C
:1010D00046E050E06BEB72E085E993E00C94571723
:1010E0005058BB27AA270E9488080C94020A0E9425
:1010F000F40938F00E94FB0920F039F49F3F19F4FD
:1011000026F40C94F1090EF4E095E7FB0C94EB093E
:10111000E92F0E94130A58F3BA176207730784076E
:10112000950720F079F4A6F50C94350A0EF4E095B5
:101130000B2EBA2FA02D0B01B90190010C01CA0191
:10114000A0011124FF27591B99F0593F50F4503E3C
:1011500068F11A16F040A22F232F342F4427585F2E
:10116000F3CF469537952795A795F0405395C9F746
:101170007EF41F16BA0B620B730B840BBAF09150FE
:10118000A1F0FF0FBB1F661F771F881FC2F70EC09D
:10119000BA0F621F731F841F48F487957795679570
:1011A000B795F7959E3F08F0B0CF9395880F08F05C
:1011B0009927EE0F9795879508950E94C70908F41F
:1011C00081E008950E94F6080C94020A0E94FB092F
:1011D00058F00E94F40940F029F45F3F29F00C9484
:1011E000EB0951110C94360A0C94F1090E94130A70
:1011F00068F39923B1F3552391F3951B550BBB2746
:10120000AA2762177307840738F09F5F5F4F220F8A
:10121000331F441FAA1FA9F335D00E2E3AF0E0E881
:1012200032D091505040E695001CCAF72BD0FE2FCB
:1012300029D0660F771F881FBB1F2617370748075F
:10124000AB07B0E809F0BB0B802DBF01FF27935817
:101250005F4F3AF09E3F510578F00C94EB090C94E7
:10126000360A5F3FE4F3983ED4F386957795679509
:10127000B795F7959F5FC9F7880F911D969587954C
:1012800097F90895E1E0660F771F881FBB1F62176B
:1012900073078407BA0720F0621B730B840BBA0B29
:1012A000EE1F88F7E09508950E945B096894B111DC
:1012B0000C94360A08950E941B0A88F09F5798F0F4
:1012C000B92F9927B751B0F0E1F0660F771F881F4B
:1012D000991F1AF0BA95C9F714C0B13091F00E9465
:1012E000350AB1E008950C94350A672F782F8827C6
:1012F000B85F39F0B93FCCF3869577956795B3958C
:10130000D9F73EF490958095709561957F4F8F4FFA
:101310009F4F0895E89409C097FB3EF490958095FF
:10132000709561957F4F8F4F9F4F9923A9F0F92FAB
:1013300096E9BB279395F695879577956795B79529
:10134000F111F8CFFAF4BB0F11F460FF1BC06F5F0F
:101350007F4F8F4F9F4F16C0882311F096E911C021
:10136000772321F09EE8872F762F05C0662371F042
:1013700096E8862F70E060E02AF09A95660F771F56
:10138000881FDAF7880F9695879597F90895990F32
:101390000008550FAA0BE0E8FEEF16161706E8073F
:1013A000F907C0F012161306E407F50798F0621B60
:1013B000730B840B950B39F40A2661F0232B242B35
:1013C000252B21F408950A2609F4A140A6958FEF54
:1013D000811D811D089597F99F6780E870E060E0A6
:1013E00008959FEF80EC089500240A9416161706BE
:1013F00018060906089500240A9412161306140606
:1014000005060895092E0394000C11F4882352F068
:10141000BB0F40F4BF2B11F460FF04C06F5F7F4F20
:101420008F4F9F4F089557FD9058440F551F59F007
:101430005F3F71F04795880F97FB991F61F09F3FC1
:1014400079F087950895121613061406551FF2CFEA
:101450004695F1DF08C0161617061806991FF1CF3A
:1014600086957105610508940895E894BB27662761
:101470007727CB0197F908950E94C70908F48FEFE9
:1014800008950E94540A0C94020A0E94F40938F04C
:101490000E94FB0920F0952311F00C94EB090C94A9
:1014A000F10911240C94360A0E94130A70F3959FD7
:1014B000C1F3950F50E0551F629FF001729FBB274B
:1014C000F00DB11D639FAA27F00DB11DAA1F649FE7
:1014D0006627B00DA11D661F829F2227B00DA11D9A
:1014E000621F739FB00DA11D621F839FA00D611D20
:1014F000221F749F3327A00D611D231F849F600D41
:10150000211D822F762F6A2F11249F5750409AF069
:10151000F1F088234AF0EE0FFF1FBB1F661F771FF5
:10152000881F91505040A9F79E3F510580F00C94C0
:10153000EB090C94360A5F3FE4F3983ED4F38695AA
:1015400077956795B795F795E7959F5FC1F7FE2B60
:10155000880F911D9695879597F90895FC01918DB7
:10156000228D892F90E0805C9F4F821B91098F73A1
:1015700099270895FC01918D828D981731F0828D05
:10158000E80FF11D858D90E008958FEF9FEF08958E
:10159000FC01918D828D981761F0828DDF01A80F7B
:1015A000B11D5D968C91928D9F5F9F73928F90E09D
:1015B00008958FEF9FEF089581E39CE0892B49F018
:1015C00080E090E0892B29F00E94310C81110C946D
:1015D00000000895FC01848DDF01A80FB11DA35AFE
:1015E000BF4F2C91848D90E001968F739927848F43
:1015F000A689B7892C93A089B1898C9180648C933A
:10160000938D848D981306C00288F389E02D808124
:101610008F7D80830895EF92FF920F931F93CF9356
:10162000DF93EC0181E0888F9B8D8C8D981305C032
:10163000E889F989808185FD24C0F62E0B8D10E0A4
:101640000F5F1F4F0F731127E02E8C8DE8120CC017
:101650000FB607FCFACFE889F989808185FFF5CFBD
:10166000CE010E94EA0AF1CF8B8DFE01E80FF11D39
:10167000E35AFF4FF0820B8FEA89FB8980818062F9
:1016800007C0EE89FF896083E889F98980818064D9
:10169000808381E090E0DF91CF911F910F91FF90C7
:1016A000EF900895CF93DF93EC01888D8823C9F0E4
:1016B000EA89FB89808185FD05C0A889B9898C915B
:1016C00086FD0FC00FB607FCF5CF808185FFF2CFF6
:1016D000A889B9898C9185FFEDCFCE010E94EA0AD5
:1016E000E7CFDF91CF910895CF92DF92EF92FF92F3
:1016F0001F93CF93DF93EC016A017B01122FE889DE
:10170000F98982E080834115514E61057105B1F080
:1017100060E079E08DE390E0A70196010E941A1B3A
:10172000DA01C9010197A109B109B695A795979565
:1017300087959C01211580E13807A8F0E889F9898F
:10174000108260E874E88EE190E0A70196010E94A3
:101750001A1BDA01C9010197A109B109B695A7952C
:10176000979587959C01EC85FD853083EE85FF85F7
:101770002083188EEC89FD891083EA89FB8980819A
:1017800080618083EA89FB89808188608083EA891F
:10179000FB89808180688083EA89FB8980818F7DD5
:1017A0008083DF91CF911F91FF90EF90DF90CF90DA
:1017B00008951F920F920FB60F9211242F938F93BB
:1017C0009F93EF93FF93E091F302F091F4028081F5
:1017D000E091F902F091FA0282FD12C090818091AD
:1017E000FC028F5F8F732091FD02821751F0E09110
:1017F000FC02F0E0ED51FD4F958F8093FC0201C09B
:101800008081FF91EF919F918F912F910F900FBE4B
:101810000F901F9018951F920F920FB60F921124E0
:101820002F933F934F935F936F937F938F939F93E8
:10183000AF93BF93EF93FF9383EE92E00E94EA0A87
:10184000FF91EF91BF91AF919F918F917F916F9198
:101850005F914F913F912F910F900FBE0F901F906E
:10186000189583EE92E00E94AE0A21E0892B09F4DC
:1018700020E0822F0895E3EEF2E01382128288EED8
:1018800093E0A0E0B0E084839583A683B78385EBE3
:1018900091E0918380838DEC90E0958784878CEC38
:1018A00090E09787868788EC90E0918B808B89EC1D
:1018B00090E0938B828B8AEC90E0958B848B8EECFE
:1018C00090E0978B868B118E128E138E148E089556
:1018D00008950E94D5110E94680C80E893E00E9450
:1018E000F4100E944602CCEDDAE00E94A705209792
:1018F000E1F30E94DC0AF9CFCF92DF92EF92FF92E0
:101900000F931F93CF93DF936C017A018B01C0E09B
:10191000D0E0CE15DF0581F0D8016D918D01D601A3
:10192000ED91FC910190F081E02DC6010995892B84
:1019300011F02196EECF7E01C701DF91CF911F916B
:101940000F91FF90EF90DF90CF9008956115710592
:1019500079F0FB0101900020E9F73197AF01461BB8
:10196000570BDC01ED91FC910280F381E02D09948D
:1019700080E090E0089561EC71E00C94A60C0F9368
:101980001F93CF93DF93EC010E94A60C8C01CE0134
:101990000E94BB0C800F911FDF91CF911F910F917F
:1019A0000895615030F02091F100FC0120830196F0
:1019B000F8CF289A84E680938903089540918403A0
:1019C000509185032091820330918303421753077E
:1019D000B4F49091E8009570E1F39091E80092FDE5
:1019E00019C08093F1008091840390918503019642
:1019F0008F739927892B19F48EEF8093E8008091DB
:101A000084039091850301969093850380938403CA
:101A100081E0089580E00895DF92EF92FF920F93A6
:101A20001F93CF93DF93D82EF92EE42E062F10E0CC
:101A3000C8010196880F0E94DE0C83E00E94DE0C34
:101A4000CD2DDF2D0C0F1D1FC017D10789F0E7FE2C
:101A500003C0FE01849101C088810E94DE0CF82E33
:101A600080E00E94DE0C8F2121968111EDCF01C014
:101A700081E0DF91CF911F910F91FF90EF90DF9068
:101A800008958091D70081608093D70080EA809389
:101A9000D80089B5806189BD89B5826089BD09B4E6
:101AA00000FEFDCF61E070E080E090E00E948E11CA
:101AB0008091D8008F7C80618093D8008091E00075
:101AC000807F8093E0000895CF93DF931F92CDB77E
:101AD000DEB71982CE0101960E944D180E94751939
:101AE000BE016F5F7F4F0E94F01889810F90DF91D8
:101AF000CF9108952FB7FC012083F894677060930D
:101B0000E9000895CF93DF931F92CDB7DEB7682F1A
:101B1000CE0101960E947A0D8091F20099819FBFBB
:101B20000F90DF91CF910895EF92FF920F931F9343
:101B3000CF93DF931F92CDB7DEB79091880399239F
:101B400011F057FF03C08FEF9FEF29C08A017B017F
:101B5000682FCE0101960E947A0D2091F20030E0AC
:101B6000021713070CF49801822FF70194E68150B5
:101B700038F0289A909389034091F1004193F7CF70
:101B80002115310521F08091F200882321F089810F
:101B90008FBFC90104C08BE68093E800F8CF0F9097
:101BA000DF91CF911F910F91FF90EF900895CF9308
:101BB000DF931F92CDB7DEB741E050E0BE016F5F0B
:101BC0007F4F0E94940D019719F4898190E002C023
:101BD0008FEF9FEF0F90DF91CF910895CF93DF9319
:101BE0001F92CDB7DEB7682FCE0101960E947A0D05
:101BF0009091E800892F807295FF04C09091F200C7
:101C00008FE3891B99819FBF0F90DF91CF9108953A
:101C10006F927F928F929F92AF92BF92CF92DF92FC
:101C2000EF92FF920F931F93CF93DF931F92CDB745
:101C3000DEB7A82E6B01B42E052F80918803811189
:101C400003C08FEF9FEF69C08091860380FF05C0BE
:101C50008091E00082608093E000EB2CF02E8AEF10
:101C6000982E8A2D8072782E9AE3892E8A2D807480
:101C7000682EE114F10409F446C08A2D0E94EE0D8D
:101C8000182F81110AC09A949920D9F261E070E06E
:101C900080E090E00E948E11ECCF90E0E816F9060B
:101CA0000CF41E2D6A2DCE0101960E947A0D8091B2
:101CB000E80085FF25C0812F90E0E81AF90A772017
:101CC00029F01150A0F01092F100FBCFF601A7FE11
:101CD0000AC0115050F024912093F1003196F9CFB1
:101CE00021912093F1001150D8F7C80ED91E809190
:101CF000E80085FF0FC0E114F10411F461100AC07F
:101D000089818FBFB6CF5D9A84E680938A038B2D3D
:101D1000902F03C08092E800F3CF0F90DF91CF9116
:101D20001F910F91FF90EF90DF90CF90BF90AF90F9
:101D30009F908F907F906F9008951092E90010927D
:101D40008503109284039093830380938203089504
:101D5000DF92EF92FF920F931F93CF93DF93D82ED2
:101D60008A017B01E40EF51EEB01CE15DF0571F053
:101D7000D7FE03C0FE01849101C088810E94DE0C61
:101D800021968111F2CF8FEF9FEF01C0C801DF9143
:101D9000CF911F910F91FF90EF90DF900895AF9238
:101DA000BF92DF92EF92FF920F931F93CF93DF9337
:101DB0005C018B01EB019BEFD92E2097C1F07E01D6
:101DC000C134D1051CF080E4E82EF12C8091E800AC
:101DD00082FFFCCFC8018C1B9D0B6E2D8A0D9B1DB5
:101DE0000E94D10CD092E800CE19DF09E6CFC801DD
:101DF000DF91CF911F910F91FF90EF90DF90BF90F7
:101E0000AF9008951F920F920FB60F921124CF92A8
:101E1000DF92EF92FF920F931F932F933F934F9375
:101E20005F936F937F938F939F93AF93BF93EF9342
:101E3000FF93CF93DF93CDB7DEB76C97DEBFCDBFF7
:101E40001092E9008091E80083FF24C168E0CE0190
:101E500045960E94D10C82EF8093E8008D8987FF20
:101E600005C09091E80090FFFCCF03C09EEF9093D7
:101E7000E800982F907609F0E5C09E894F89588D2B
:101E80002F89188D91110CC0803829F48091870317
:101E90008093F10002C01092F1001092F100F3C0A3
:101EA000913051F48111EFC04130510509F0EBC080
:101EB000809187038D7F0BC0933061F48111E3C063
:101EC0004130510509F0DFC0809187038260809323
:101ED0008703D9C0953049F48091E80080FFFCCF9A
:101EE000822F80688093E300CEC0963009F07DC0D9
:101EF000EB8CFC8C123069F580E090E00E949D0E26
:101F00000E94640D99E09E012F5F3F4F6901F90126
:101F1000292F11922A95E9F799831A8391E09E83DC
:101F200090EA98879AEF99872091840330918503EE
:101F3000275F3F4F3C832B838D83C7010E949D0EFB
:101F400049E050E0B60180E00E94A80E0E94640DB6
:101F50009AC0C7010E949D0E0E947519BE016B5E5A
:101F60007F4F0E941919009719F00CF08CC08FC098
:101F7000113071F48B8D9C8D089719F481E080935A
:101F8000810380918103811173C06CED70E075C095
:101F9000133009F07CC08F89882309F46CC082302B
:101FA00029F440E86DE08AEF90E006C0813039F412
:101FB00040E86BE08EEE90E00E940C0D56C083303E
:101FC00009F065C00E9475198E010F5F1F4FB8019F
:101FD0000E943819F80101900020E9F73197BF01FC
:101FE000601B710B40E0C801E7CF973009F44FC088
:101FF000983021F481E08093F10045C0993009F0D8
:1020000042C0837009F043C0E4E4F1E081E031E0D4
:1020100096E32081211109C08EE78093EA00109297
:10202000EA008F89809388032EC08093E900309363
:10203000EB0021912093EC009093ED008F5F8730AF
:1020400041F7EACF8B8D9C8D0E949D0E898D811169
:1020500005C0CE0145960E94581807C00E94751908
:10206000BE016B5E7F4F0E945719882381F00BC021
:102070006AEC70E002C068E071E0FB01449150E05E
:1020800080E80E94A80E8EEF8093E80003C081E2F2
:102090008093EB006C960FB6F894DEBF0FBECDBFF9
:1020A000DF91CF91FF91EF91BF91AF919F918F9170
:1020B0007F916F915F914F913F912F911F910F9160
:1020C000FF90EF90DF90CF900F900FBE0F901F907A
:1020D00018958093E9008091F200882319F08AE333
:1020E0008093E80008951F920F920FB60F9211246B
:1020F0002F933F934F935F936F937F938F939F9310
:10210000AF93BF93CF93EF93FF93C091E100809182
:10211000E100837F8093E100C3FF0FC01092E900CC
:1021200081E08093EB001092EC0082E38093ED005D
:102130001092880388E08093F000C2FF19C083E00A
:102140000E94691080918A03882339F080918A0364
:10215000815080938A03882389F1809189038823A1
:1021600039F080918903815080938903882341F15C
:10217000C4FF10C08091E2008E7E81608093E200F7
:102180008091E1008F7E8093E100809186038E7EB6
:10219000806111C0C0FF16C08091E2008E7E806118
:1021A0008093E2008091E1008E7E8093E100809137
:1021B00086038E7E81608093860304C05D98CDCFB8
:1021C0002898D6CFFF91EF91CF91BF91AF919F917A
:1021D0008F917F916F915F914F913F912F910F90D0
:1021E0000FBE0F901F9018951092880310928703CE
:1021F000109286030E94410D8091E1008E7E8093B3
:10220000E1008DE08093E200559A209A5D9828982D
:10221000EEEFFFE7859194918B3F9C4D19F481E09F
:1022200080933A0408951F920F920FB60F921124D3
:102230002F933F938F939F93AF93BF9380918C0382
:1022400090918D03A0918E03B0918F0330918B03F9
:1022500023E0230F2D3720F40196A11DB11D05C0E9
:1022600026E8230F0296A11DB11D20938B038093B6
:102270008C0390938D03A0938E03B0938F03809172
:10228000900390919103A0919203B09193030196D2
:10229000A11DB11D8093900390939103A09392038D
:1022A000B0939303BF91AF919F918F913F912F91E5
:1022B0000F900FBE0F901F9018952FB7F894609154
:1022C0008C0370918D0380918E0390918F032FBFAB
:1022D00008953FB7F8948091900390919103A09155
:1022E0009203B091930326B5A89B05C02F3F19F028
:1022F0000196A11DB11D3FBFBA2FA92F982F882786
:10230000820F911DA11DB11DBC01CD0142E0660FE0
:10231000771F881F991F4A95D1F708958F929F9232
:10232000AF92BF92CF92DF92EF92FF926B017C014E
:102330000E9469114B015C01C114D104E104F10454
:1023400001F10E94EF180E946911DC01CB0188198C
:102350009909AA09BB09883E9340A105B10560F31C
:1023600021E0C21AD108E108F10888EE880E83E066
:10237000981EA11CB11CC114D104E104F10419F789
:10238000DBCFFF90EF90DF90CF90BF90AF909F900A
:102390008F9008958230910538F0880F991F880F2B
:1023A000991F05970197F1F70895789484B5826095
:1023B00084BD84B5816084BD85B5826085BD85B5E9
:1023C000816085BDEEE6F0E0808181608083E1E898
:1023D000F0E01082808182608083808181608083D0
:1023E000E0E8F0E0808181608083E1E9F0E08081D5
:1023F00082608083808181608083E0E9F0E0808179
:1024000081608083E1ECF0E0808184608083808162
:1024100082608083808181608083E3ECF0E0808152
:1024200081608083E0ECF0E0808182608083E2EC78
:10243000F0E0808181608083EAE7F0E08081846061
:1024400080838081826080838081816080838081BD
:10245000806880830895823108F08251E82FF0E08F
:10246000E45FFE4FE49180917B00E3FB222720F99B
:1024700030E095E0220F331F9A95E1F78F7D282BEE
:1024800020937B0080914A0120E4829FC0011124A7
:10249000E770E82BE0937C0080917A008064809361
:1024A0007A0080917A0086FDFCCF8091780020919F
:1024B000790090E0922B089590E0FC013197EF3085
:1024C000F105B0F5EA5AFF4F0C943C1B8091800057
:1024D0008F7703C0809180008F7D80938000089566
:1024E00080918000877FF9CF84B58F7702C084B553
:1024F0008F7D84BD0895809190008F7707C0809173
:1025000090008F7D03C080919000877F8093900022
:1025100008958091C0008F7703C08091C0008F7DA7
:102520008093C00008958091C200877F8093C2008D
:102530000895CF93DF9390E0FC01E95CFE4F249176
:10254000FC01EA5AFE4F8491882361F190E0880FE4
:10255000991FFC01ED57FE4FC591D491FC01EB583A
:10256000FE4FA591B491611109C09FB7F89488817D
:10257000209582238883EC912E230BC0623061F476
:102580009FB7F8948881322F309583238883EC910C
:102590002E2B2C939FBF06C08FB7F894E8812E2B6B
:1025A00028838FBFDF91CF9108951F93CF93DF933F
:1025B000282F30E0F901E85EFE4F8491F901E95CD3
:1025C000FE4FD491F901EA5AFE4FC491CC23C1F0D9
:1025D000162F81110E945C12EC2FF0E0EE0FFF1F0E
:1025E000EB58FE4FA591B4919FB7F894111104C018
:1025F0008C91D095D82302C0EC91DE2BDC939FBF49
:10260000DF91CF911F9108952F923F924F925F9249
:102610006F927F928F929F92AF92BF92CF92DF92F2
:10262000EF92FF920F931F93CF93DF93CDB7DEB757
:102630002A970FB6F894DEBF0FBECDBFDC01D69649
:102640002C91222309F4E9C09A8789870E945D11A1
:1026500069837A838B839C83E985FA8580A191A124
:1026600029813A81281B390B84A595A5281739079C
:102670000CF4D3C0028CF38DE02D80809180A28079
:10268000B380A985BA855E96ED91FC915F97A5010F
:10269000940160817181828193810E9470082B0175
:1026A0003C01E985FA8520893189428953890E9454
:1026B000410AA985BA8594962D913D914D915C91E1
:1026C00097970E9471086B017C01E985FA8564A3E4
:1026D00075A386A397A312A903A934A825A8212F1F
:1026E000302F432D522D0E943C0A18162CF4812FB6
:1026F000902FA32DB22D18C0A985BA859E968D91D5
:102700009D910D90BC91A02D8D839E83AF83B88742
:102710009C01AD01C701B6010E94DD0887FF0AC018
:102720008D819E81AF81B885E985FA8584A395A3C3
:10273000A6A3B7A3A985BA851C962D913D914D916D
:102740005C911F97C301B2010E94410AE985FA8595
:1027500024A135A146A157A10E9471086B017C01FB
:10276000A985BA8598962D913D914D915C919B9745
:10277000C501B4010E947008E985FA85248935896C
:10278000468957890E94410A9B01AC01C701B601E5
:102790000E9470086B017C019B01AC01612F702FBE
:1027A000832D922D0E94DD0887FD1BC0A985BA8567
:1027B0009E961C919E979F960C919F97D0963C90C9
:1027C000D097D1962C90212F302F432D522DB6012A
:1027D000C7010E94DD0887FD04C01C2D0D2D3E2C75
:1027E0002F2CA985BA855C96ED91FC915D97812F80
:1027F000902FA32DB22D80839183A283B383E9858B
:10280000FA8580A691A6A2A6B3A689819A81AB81FA
:10281000BC8180A391A3A2A3B3A32A960FB6F89478
:10282000DEBF0FBECDBFDF91CF911F910F91FF9003
:10283000EF90DF90CF90BF90AF909F908F907F9060
:102840006F905F904F903F902F9008954F925F92BE
:102850006F927F928F929F92AF92BF92CF92DF92B0
:10286000EF92FF920F931F93CF93DF9300D000D08E
:1028700000D0CDB7DEB79E838D832A013B0148018E
:10288000590120E030E0A901C301B2010E94DD0836
:1028900087FD81C020E030E0A901C501B4010E949C
:1028A000DD0887FD78C020E030E0A901C701B6014E
:1028B0000E94DD0887FD6FC0ED81FE81408251825C
:1028C0006282738284829582A682B782C086D18614
:1028D000E286F38664A575A5072E000C880B990B7C
:1028E0000E948C0920E030E04AE754E40E94E208AC
:1028F00069837A838B839C83ED81FE814486558630
:10290000668677869B01AC01C501B4010E94410A2D
:102910004B015C01ED81FE81608B718B828B938B0F
:1029200029813A814B815C81C701B6010E94E2088E
:102930006B017C01ED81FE81648B758B868B978B9F
:10294000808D918D019739F5A301920160E070E0CF
:10295000CB010E947008ED81FE81648775878687B0
:102960009787A501940160E070E0CB010E94700898
:10297000ED81FE81608B718B828B938BA701960119
:1029800060E070E0CB010E947008ED81FE81648BF5
:10299000758B868B978B26960FB6F894DEBF0FBE8D
:1029A000CDBFDF91CF911F910F91FF90EF90DF90FE
:1029B000CF90BF90AF909F908F907F906F905F90DF
:1029C0004F900895CF92DF92EF92FF920F931F9353
:1029D000CF93DF9316161706A4F58B01EC01072E93
:1029E000000C880B990B0E948C096B017C016CA573
:1029F0007DA5072E000C880B990B0E948C099B016A
:102A0000AC01C701B6010E94E2086B017C019B0189
:102A1000AC01688979898A899B890E94410A688BFF
:102A2000798B8A8B9B8BA70196016C897D898E8916
:102A30009F890E94E2086C8B7D8B8E8B9F8B1DA7DC
:102A40000CA7DF91CF911F910F91FF90EF90DF9036
:102A5000CF9008952F923F924F925F926F927F9204
:102A60008F929F92AF92BF92CF92DF92EF92FF929E
:102A70000F931F93CF93DF93EC016A017B01480111
:102A80005901A9019801C701B6010E943C0A87FFBC
:102A90004EC0CEA6DFA6E8AAF9AA8AAA9BAAACAA2B
:102AA000BDAA8EA9882309F442C02C8C3D8CF1016B
:102AB0004080518062807380A3019201C501B401FE
:102AC0000E94DD0887FF06C0F10180829182A28208
:102AD000B3820DC0A3019201C701B6010E943C0A56
:102AE00018162CF4F101C082D182E282F3828CA00C
:102AF0009DA0AEA0BFA0CAA8DBA8ECA8FDA8A70116
:102B00009601C501B4010E943C0A181664F0CEA4D7
:102B1000DFA4E8A8F9A8A7019601C501B4010E94A5
:102B2000DD0887FF04C0CCA2DDA2EEA2FFA2DF91E8
:102B3000CF911F910F91FF90EF90DF90CF90BF90BA
:102B4000AF909F908F907F906F905F904F903F904D
:102B50002F9008958F929F92AF92BF92CF92DF9263
:102B6000EF92FF92CF93DF93EC01EC8DFD8DC0804F
:102B7000D180E280F380CCA2DDA2EEA2FFA2EA8D9A
:102B8000FB8D80819181A281B38188A799A7AAA793
:102B9000BBA78AA89BA8ACA8BDA8A5019401C701A2
:102BA000B6010E943C0A181664F08EA49FA4A8A83F
:102BB000B9A8A5019401C701B6010E94DD0887FFED
:102BC00004C08CA29DA2AEA2BFA2DF91CF91FF90C4
:102BD000EF90DF90CF90BF90AF909F908F9008952F
:102BE0001F93CF93DF93EC0111E06130710509F081
:102BF00010E09EA981E08927181303C0CE010E942E
:102C0000AA151EABDF91CF911F9108950F931F93CB
:102C1000CF93DF93EC018B018EA9882361F1888D1E
:102C2000998D8617970739F12C853D854E855F85EF
:102C300060E070E0CB010E9470086C877D878E8712
:102C40009F87288939894A895B8960E070E0CB01D8
:102C50000E947008688B798B8A8B9B8B2C893D89AD
:102C60004E895F8960E070E0CB010E9470086C8B38
:102C70007D8B8E8B9F8B198F088FDF91CF911F914A
:102C80000F9108952F923F924F925F926F927F9291
:102C90008F929F92AF92BF92CF92DF92EF92FF926C
:102CA0000F931F93CF93DF93CDB7DEB728970FB65F
:102CB000F894DEBF0FBECDBF4C017A8369831A0141
:102CC0003C832B8327013801AD82BE82CF82D88618
:102CD00000E010E02FE733E440E050E0BA010E944A
:102CE0002A1584E690E0F40195A784A769A17AA14A
:102CF000C4010E940616CD8CDE8CEF8CF8A00D81ED
:102D00001E812F813885B301A201C4010E942614BF
:102D10000E945D11F40144A455A4052C000C660822
:102D20007708DC01CB0184199509A609B70980A3AE
:102D300091A3A2A3B3A316AA358E248E89819A816A
:102D4000938F828F8B819C81978F868F28960FB669
:102D5000F894DEBF0FBECDBFDF91CF911F910F91D1
:102D6000FF90EF90DF90CF90BF90AF909F908F90AB
:102D70007F906F905F904F903F902F900895CF93EA
:102D8000CFB7F89480919403811127C0E7E6F1E072
:102D90008491E8E4F1E09491E82FF0E0EE0FFF1F5A
:102DA000ED57FE4FA591B491EC91E92321F461E038
:102DB00081E10E94D51261E081E10E9499128CB5F7
:102DC00080618CBD8CB580648CBD61E08FE00E9419
:102DD000991261E080E10E949912809194038F5FC3
:102DE00080939403CFBFCF9108958091C80390E062
:102DF0002091C903821B910908959091C903809184
:102E0000C803981750F4E92FF0E0E653FC4F2081F7
:102E100030E09F5F9093C90302C02FEF3FEFC901DD
:102E20000895E091C9038091C803E81730F4F0E0F9
:102E3000E653FC4F808190E008958FEF9FEF089557
:102E40000895CF93DF93EC01E091A103F091A203E9
:102E50003097F1F09091C9038091C8039817C0F0A2
:102E600090E0292F30E02617370754F4DE01A20F37
:102E7000B31F4C91D901A653BC4F4C939F5FF1CF28
:102E80001092C9036093C803CB01DF91CF910994DD
:102E9000DF91CF910895E091A303F091A4033097BF
:102EA00029F01092A7031092A60309940895CF92D7
:102EB000DF92EF92FF920F931F93CF93DF937C01EA
:102EC000CB018A012091A503222389F0EB016B013C
:102ED000C40ED51ECC15DD0569F06991D701ED91C1
:102EE000FC910190F081E02DC7010995F3CF642F8B
:102EF0000E94AB19C801DF91CF911F910F91FF90F4
:102F0000EF90DF90CF900895CF93DF931F92CDB7CE
:102F1000DEB769832091A5032223D1F02091A60377
:102F2000203240F021E030E0FC013383228380E056
:102F300090E015C08091A703E82FF0E0E855FC4F22
:102F4000998190838F5F8093A7038093A60305C028
:102F500061E0CE0101960E94AB1981E090E00F90F4
:102F6000DF91CF910895FC011382128288EE93E0E5
:102F7000A0E0B0E084839583A683B78384ED91E0DD
:102F80009183808308951092C9031092C803109210
:102F9000A7031092A6030C948919CF93DF93EC0139
:102FA000862F0E94A7198BE497E10E94D81981E22D
:102FB00097E10E94D319CE01DF91CF910C94C317F2
:102FC0000C94CD177093A2036093A103089570939E
:102FD000A4036093A303089585E993E00C94B317C9
:102FE000CF93DF931F92CDB7DEB76983DC01ED91FC
:102FF000FC910280F381E02D41E050E0BE016F5F63
:103000007F4F09950F90DF91CF910895CF93DF9374
:10301000EC018C859D8597FF05C082E00E94D70D4D
:103020009D878C878C859D85DF91CF91089583E066
:103030000C946910FC018485958597FD06C082E09B
:103040000E94820D90E00196089582E00E94820D18
:1030500090E00895FC018485958597FD05C02FEFCC
:103060003FEF35872487089582E00C94D70DCF93E6
:10307000DF93EC0180915601882331F083E00E94B8
:10308000080E1816190634F081E090E09B838A83BD
:1030900080E090E0DF91CF910895FC0190819E5FE8
:1030A000908342E450E061E971E080E80C94A80E5E
:1030B000FC0181819081913A59F4813209F05CC020
:1030C00047E050E06FE471E080E00E94A80E52C03B
:1030D000913209F051C0833269F482819381A0E07A
:1030E000B0E080934B0190934C01A0934D01B093BD
:1030F0004E0140C0803239F467E070E08FE491E027
:103100000E94CF0E05C08232A9F5828180935601BC
:1031100080913A04882319F0EEEFFAE002C0E0E073
:10312000F8E080914F0190915001A0915101B09130
:103130005201803B9440A105B10501F580915601F3
:1031400080FD1CC0EE3F2AE0F20731F080819181C2
:103150009093FF0A8093FE0A87E797E79183808325
:103160009BE088E10FB6F894A895809360000FBEAD
:103170009093600081E0089580E008950FB6F89480
:10318000A895809160008861809360001092600033
:103190000FBEA895EE3F8AE0F80739F08091FE0A4D
:1031A0009091FF0A91838083E5CF1092FF0A1092DD
:1031B000FE0AE0CFEAEEF3E01382128288EE93E09B
:1031C000A0E0B0E084839583A683B78384EE91E08A
:1031D000918380838FEF9FEF95878487089508956B
:1031E000EF92FF920F931F93CF93DF937B01FC012C
:1031F000C281D38100E010E0209781F0E881F9815D
:103200000280F381E02DB701CE01099597FD08C03A
:10321000080F191F0884D985C02DEECFC80102C040
:103220008FEF9FEFDF91CF911F910F91FF90EF9064
:1032300008950F931F93CF93DF938B01FC01C281FD
:10324000D381209771F0E881F9810480F581E02D28
:10325000B801CE010995009731F40884D985C02DB5
:10326000F0CF80E090E0DF91CF911F910F91089512
:103270000F931F93CF93DF938B01FC01C281D38106
:10328000209771F0E881F9810680F781E02DB8017F
:10329000CE010995080F111D0884D985C02DF0CFE6
:1032A000F8011082DF91CF911F910F9108950F9334
:1032B0001F93CF93DF938B01FC01C281D3812097B1
:1032C00071F0E881F9810190F081E02DB801CE0123
:1032D0000995811105C00884D985C02DF0CF80E003
:1032E000DF91CF911F910F91089580913F0481113B
:1032F0000DC082E080933B0484E080933C041092F4
:103300003E0410923D0481E080933F048BE394E0FF
:1033100008951092B40481E08093B2041092B10435
:1033200061E082E00E94D51261E083E00E94D51244
:10333000E9EBF0E080818E7F808380818D7F8083C8
:1033400088E48093B80085E48093BC000895880FDA
:103350008093BA00089540916904262F30E0240F2D
:10336000311D21323105DCF42091B4042430C9F43C
:10337000FC0180E090E0861758F4309169042191B7
:10338000DC01A559BB4FA30FB11D2C930196F3CFC0
:1033900080916904680F6093690480E0089581E07A
:1033A000089582E008959093AE048093AD0408954B
:1033B0009093B0048093AF04089585ED8093BC0092
:1033C0008091BC0084FDFCCF1092B404089585EC7C
:1033D0008093BC001092B40408951F920F920FB610
:1033E0000F9211242F933F934F935F936F937F938B
:1033F0008F939F93AF93BF93EF93FF938091B90007
:10340000887F803609F49EC078F5883209F45DC063
:1034100090F4803109F456C038F4882309F4F5C0DB
:10342000883009F44FC0F5C0883109F44EC08032AD
:1034300009F45FC0EEC0803409F46AC058F48033E8
:1034400009F457C0883309F0E4C0809347040E9410
:10345000E719DFC0803509F44FC0883509F45DC035
:10346000883409F0D6C0D3C0883909F4C4C0A8F4A0
:10347000883709F467C038F4883609F463C08037A8
:1034800009F460C0C6C0883809F4B5C0803909F4B1
:103490005FC0803809F0BDC05BC0803B09F483C0C9
:1034A00038F4803A09F466C0883A09F47CC0B1C0A7
:1034B000803C09F4A4C0883C09F4A1C0883B09F40D
:1034C00087C0A7C08091B30410C090918C048091F4
:1034D0008B04981770F5E0918C0481E08E0F809337
:1034E0008C04F0E0E357FB4F80818093BB0085ECB8
:1034F00083C0809347048BC0E0918C0481E08E0FE1
:1035000080938C048091BB00F0E0E357FB4F8083F5
:1035100090918C0480918B046BC0E0918C0481E0CD
:103520008E0F80938C048091BB00F0E0E357FB4F3B
:1035300080838091B20481116AC081E08093B104DC
:1035400084EA5EC083E08093B40410924804CFCF35
:1035500080914804803208F04EC0E091480481E038
:103560008E0F809348048091BB00F0E0E75BFB4F37
:103570008083BDCF0E94E71980914804803230F4E7
:10358000E0914804F0E0E75BFB4F10826091480453
:1035900070E0E091AD04F091AE0489E494E0099507
:1035A0001092480436C084E08093B40410926A04F8
:1035B00010926904E091AF04F091B00409958091F4
:1035C0006904811105C081E08093690410926B0445
:1035D000E0916A0481E08E0F80936A04F0E0E5597F
:1035E000FB4F80818093BB0090916A0480916904B5
:1035F000981708F47CCF85E88093BC000AC085EC5E
:103600008093BC001092B40404C0109247040E943E
:10361000DD19FF91EF91BF91AF919F918F917F91B4
:103620006F915F914F913F912F910F900FBE0F902F
:103630001F901895A1E21A2EAA1BBB1BFD010DC0FD
:10364000AA1FBB1FEE1FFF1FA217B307E407F50752
:1036500020F0A21BB30BE40BF50B661F771F881F2E
:10366000991F1A9469F760957095809590959B01C4
:10367000AC01BD01CF010895EE0FFF1F0590F4913D
:08368000E02D0994F894FFCF3E
:103688000100CDCCCC3D010AD7A33B0AD7A33B0010
:1036980000003F0AD7A33B0AD7A33B0000003F0A1C
:1036A800D7A33B0AD7A33B0000003FD00F494000F7
:1036B800007042000034430000E0400400070000AE
:1036C80000164300C1808100000001FFFFFFFF00DA
:1036D800E1000000000000456E636F6465727320AE
:1036E800496E697469616C697A65642E2E2E00458D
:1036F8006E636F6465727320436C65617265642ED6
:103708002E2E004D6F64756C6520696E6974696151
:103718006C697A656400496E6974696C69617A6973
:103728006E67206D6F64756C65206C656E67746874
:1037380000000000000B0B7C0CAE0AC80ABA0A5243
:103748000B0D0A006E616E00696E66006F7666008A
:103758000000000084175717F516FD1611172017DB
:1037680000000000F01737181A182A18061817183A
:00000001FF
