:100000000C9469000C9491000C9491000C94910054
:100010000C9491000C9491000C9491000C9491001C
:100020000C9491000C9491000C9491000C9491000C
:100030000C9491000C9491000C9491000C949100FC
:100040000C940D080C9491000C94200A0C94520A04
:100050000C9491000C9491000C9491000C949100DC
:100060000C94BD040C9491000000000900030200F0
:10007000000405080000000000000000000000016E
:10008000020408102040800102040810200102042C
:100090000810204080400404040404040404020204
:1000A000020202020303030303030202030000002F
:1000B0000023002600290000000000250028002B56
:1000C0000000000000240027002A00002C0349043F
:1000D000820A11241FBECFEFD8E0DEBFCDBF11E0F2
:1000E000A0E0B1E0E2E3F5E202C005900D92A23596
:1000F000B107D9F723E0A2E5B1E001C01D92A63116
:10010000B207E1F710E0C9E6D0E004C02197FE0194
:100110000E945F10C636D107C9F70E94170D0C94D4
:1001200097120C940000CF92DF92EF92FF920F9300
:100130001F936091080189EA91E00E94370460E012
:1001400081E10E948D0960E082E00E948D0960E0FB
:1001500083E00E948D0960E373E089EA91E00E94E8
:1001600044046FE473E089EA91E00E943F0461E097
:1001700085E00E94C9098FE691E00E94DE058FE6C6
:10018000C82E82E1D82E83E0E82E8AE3F82E0DEC0B
:100190001CEC2CEC3DE340E050E060E87FE38FE6B0
:1001A00091E00E94010600E010E02FE733E440E018
:1001B00050E0BA018FE691E00E944E06809108015E
:1001C0008450833030F486E990E090930701809367
:1001D00006011F910F91FF90EF90DF90CF9008954F
:1001E00081E10E94E908BC01990F880B990B0E94DC
:1001F000160F60936B0170936C0180936D01909367
:100200006E0120E030E0A9010E94C60F181624F408
:1002100081E080936A01089510926A010895CF9356
:10022000DF93EC0170E060E089E00E940709BE0105
:100230008AE0DF91CF910C940709BC0189E00E940C
:10024000070970E060E08AE00C9407096FEF70E046
:1002500089E00E9407096FEF70E08AE00C940709BB
:100260008F929F92AF92BF92CF92DF92EF92FF92C6
:100270000F931F93CF93DF93CDB7DEB72C970FB6B5
:10028000F894DEBF0FBECDBF0E94570800916801F1
:1002900010916901012E000C220B330B601B710BB6
:1002A000820B930B643171058105910508F4A2C09E
:1002B000809160019091610120915E0130915F0118
:1002C000AC01421B530B509359014093580190933A
:1002D0005F0180935E0160915A0170915B01809192
:1002E0005C0190915D010E94DE0E072E000C880BD0
:1002F000990B0E94160F4B015C01AC019B0160E061
:1003000070E0CB010E94FA0D6B017C0120E030E02F
:10031000A9010E94C60F181624F0F7FAF094F7F816
:10032000F09420E030E040EA50E4C701B6010E94BA
:10033000C60F87FF9BC010925A0110925B0110926A
:100340005C0110925D016BE071E0CE0101960E94AC
:10035000C40C65E171E0CE0107960E94C40C409187
:100360005A0150915B0160915C0170915D018E01B9
:100370000F5F1F4F9E01295F3F4F8FE691E00E9464
:1003800095066B017C01CE0107960E94550CC801B1
:100390000E94550C20E030E04FE753E4C701B6015E
:1003A0000E94670E87FF6BC020E030E0A901C70103
:1003B000B6010E94C60F18161CF0C12CD12C760174
:1003C0006091560170915701072E000C880B990B14
:1003D0000E94160FA70196010E94FB0D0E94DE0EDF
:1003E00070935701609356010E94570870936901FA
:1003F000609368010E94F00082E00E94F7098C017E
:1004000083E00E94F709000F111F802B912B90931E
:100410006701809366012091620130916301213070
:10042000310509F463C00CF031C0232B09F449C035
:100430009093630180936201E0910901EE3008F02E
:1004400071C00E2E000CFF0BE85DFD4F0C945F1089
:100450009002A502B002BB029202920292029202A4
:10046000DE02CF020003EF0212031F0380925A0143
:1004700090925B01A0925C01B0925D0164CFC12CAF
:10048000D12C3FE7E32E33E4F32E9ACF223031050F
:10049000E9F12330310509F0CBCF8130910579F1B5
:1004A00082309105C1F0009709F0C2CF209164011C
:1004B000309165012F5F3F4F3093650120936401B8
:1004C000B7CF82309105D9F08330910579F381302F
:1004D000910509F0ADCF209160013091610121506B
:1004E00031093093610120936001A2CF82309105E0
:1004F000E9F28330910579F3009709F099CF2091C3
:100500006001309161012F5F3F4FEBCF813091054A
:1005100069F28330910599F3009709F089CFDBCF19
:100520000E9426012C960FB6F894DEBF0FBECDBFF9
:10053000DF91CF911F910F91FF90EF90DF90CF90BF
:10054000BF90AF909F908F90089540E050E068EC8E
:1005500071E48FE691E00E94FB0586E990E03CC0E3
:1005600040E050E068EC71E48FE691E00E94FB050A
:1005700086E990E011C080916A01882359F00E94B9
:10058000260168EC70E080E090E00E9488081092FC
:100590000901C8CF82E890E00E940F01C3CF40E07C
:1005A00050E068E472EC8FE691E00E94FB058091D8
:1005B0000801813079F48FEF90E0EECF40E050E019
:1005C00068E472E48FE691E00E94FB0580910801E7
:1005D000813089F78FEF90E00E941D01A3CF40E0AA
:1005E00050E068EC71EC8FE691E00E94FB052091F1
:1005F00008018091560190915701213069F7CCCFC5
:1006000040E050E068EC71E48FE691E00E94FB0569
:10061000209108018091560190915701213009F0F5
:10062000BBCFDACF6091060170910701072E000C55
:10063000880B990B0E94160FAB01BC0195CF6091FE
:10064000060170910701072E000C880B990B0E9480
:10065000160FAB01BC017DCF8FE691E00C94DD0558
:10066000CF93DF938091600190916101C2E5D1E069
:100670009883898360916B0170916C0180916D0109
:1006800090916E010E94E50E6A836B8344E050E016
:10069000BE0189EA91E0DF91CF910C94F80389EAD9
:1006A00091E00E946903181619063CF489EA91E06A
:1006B0000E94700380930901F2CF109261011092A1
:1006C000600110925F0110925E01089590E080E059
:1006D00008958091DC019091DD01891B990B0895AB
:1006E0009091DD018091DC012FEF3FEF981748F4E6
:1006F000E92FF0E0E252FE4F208130E09F5F9093BF
:10070000DD01C9010895E091DD018091DC01E81768
:1007100030F4F0E0E252FE4F808190E008958FEFD8
:100720009FEF08950895CF93DF93EC01E091B50119
:10073000F091B6013097F1F09091DD018091DC01EC
:100740009817C0F090E0292F30E02617370754F4AF
:10075000DE01A20FB31F4C9122523E4FD9014C93A0
:100760009F5FF1CF1092DD016093DC01CB01DF913F
:10077000CF910994DF91CF910895E091B701F09165
:10078000B801309729F01092BB011092BA01099478
:100790000895CF93DF931F92CDB7DEB76983209181
:1007A000B9012223F9F02091BA01203258F021E05A
:1007B00030E0FC013383228390E080E00F90DF91F2
:1007C000CF9108958091BB01E82FF0E0E454FE4FF3
:1007D000998190838F5F8093BB018093BA0181E000
:1007E00090E0ECCF61E0CE0101960E947C04F7CF4F
:1007F000CF92DF92EF92FF920F931F93CF93DF93ED
:100800007C01CB018A012091B901222389F0EB01FF
:100810006B01C40ED51ECC15DD0569F06991D701B9
:10082000ED91FC910190F081E02DC7010995F3CF86
:10083000642F0E947C04C801DF91CF911F910F911A
:10084000FF90EF90DF90CF9008951092DD0110920D
:10085000DC011092BB011092BA010E945A048DEB88
:1008600093E00E94A80483E993E00C94A304CF933F
:10087000C62F0E9425048C2FCF910C94780470937E
:10088000B6016093B50108957093B8016093B70104
:100890000895E9EAF1E01382128288EE93E0A0E085
:1008A000B0E084839583A683B78381E291E091834E
:1008B0008083089510926B0281E080936902109208
:1008C000680261E082E10E94C90961E083E10E945F
:1008D000C909E9EBF0E080818E7F808380818D7F84
:1008E000808388E48093B80085E48093BC000895F9
:1008F000880F8093BA00089520912002260F332795
:10090000331F21323105ECF420916B02FC0190E0A1
:1009100080E0243069F082E00895A09120022191C6
:10092000AC014E5D5D4FA40FB52FB11D2C93019608
:10093000861798F380912002680F6093200280E070
:10094000089581E00895909365028093640208956C
:100950009093670280936602089585ED8093BC00B2
:100960008091BC0084FDFCCF10926B02089585EC51
:100970008093BC0010926B0208951F920F920FB6E5
:100980000F9211242F933F934F935F936F937F9315
:100990008F939F93AF93BF93EF93FF938091B90091
:1009A000887F803609F44CC008F03FC0883209F4D3
:1009B000A8C018F5803109F49CC0B8F4882309F464
:1009C000F9C0883009F495C0FF91EF91BF91AF91C4
:1009D0009F918F917F916F915F914F913F912F9157
:1009E0000F900FBE0F901F901895883109F489C0A1
:1009F000803251F78093FE0115C0803409F49EC007
:100A000048F48033B9F38833F9F68093FE010E94ED
:100A1000B704DACF803509F485C0883509F496C06B
:100A2000883491F60E94AD04CFCF883909F48CC088
:100A300038F5883729F050F4883611F0803721F6E0
:100A400083E080936B021092FF0157C0883809F44D
:100A50007BC0803919F0803809F0B6CF8091FF0152
:100A6000803208F071C0E091FF0181E08E0F809329
:100A7000FF018091BB00F0E0E050FE4F80833DC05D
:100A8000803B39F0E0F4803A09F479C0883A09F003
:100A90009BCF84E080936B0210922102109220027F
:100AA000E0916602F0916702099580912002811120
:100AB0000FC081E0809320021092220209C0803C86
:100AC00009F476C0883C09F473C0883B09F07CCFF8
:100AD000E091210281E08E0F80932102F0E0EE5D33
:100AE000FD4F80818093BB00909121028091200274
:100AF00029C080916A028093BB0085EC8093BC0082
:100B000063CF9091430280914202981758F5E0918B
:100B1000430281E08E0F80934302F0E0EC5BFD4FD7
:100B20008081E9CFE091430281E08E0F8093430200
:100B30008091BB00F0E0EC5BFD4F8083909143021D
:100B4000809142029817C8F285E8D8CFE09143021D
:100B500081E08E0F809343028091BB00F0E0EC5B5C
:100B6000FD4F80838091690281115CCF81E0809389
:100B7000680284EA8093BC0010926B0225CF0E9429
:100B8000B7048091FF01803230F4E091FF01F0E082
:100B9000E050FE4F10826091FF0170E0E09164022E
:100BA000F091650280E092E009951092FF010CCF70
:100BB00085ECE0CF1092FE0135CF0895FC0180E076
:100BC00090E0A0E8BFE3868F978FA0A3B1A382A394
:100BD00093A3A4A3B5A386A397A3A0A7B1A780E0DE
:100BE00090E0A0E2B1E482A793A7A4A7B5A7148ED2
:100BF00081E0858F0895FC0146AB57AB60AF71AFC4
:100C000008954F925F926F927F928F929F92AF92D0
:100C1000BF92CF92DF92EF92FF920F931F93CF93E9
:100C2000DF93EC012A013B014801590120E030E04B
:100C3000A901CB01B2010E94670E87FD1EC020E012
:100C400030E0A901C501B8010E94670E87FD15C0FB
:100C500020E030E0A901C701B6010E94670E87FDC0
:100C60000CC04E8E5F8E68A279A28AA29BA2ACA213
:100C7000BDA2CEA2DFA2E8A6F9A6DF91CF911F9177
:100C80000F91FF90EF90DF90CF90BF90AF909F902B
:100C90008F907F906F905F904F9008950F931F9368
:100CA000FC0146A757A760AB71AB02AB13AB24ABFB
:100CB00035AB81E0848F1F910F9108950F931F939F
:100CC000CF93DF93EC01890122E030E085E792E0E9
:100CD0000E94410C6DE071E0C8010E94F90C88236C
:100CE00081F06FE271E085E792E00E94EB0A4C81AF
:100CF0005D816E817F8122E030E085E792E00E9495
:100D0000410C6FE271E085E792E00E94EB0A4EA988
:100D10005FA968AD79AD22E030E085E792E0DF9130
:100D2000CF911F910F910C94430C2F923F924F92B1
:100D30005F926F927F928F929F92AF92BF92CF926B
:100D4000DF92EF92FF920F931F93CF93DF93CDB774
:100D5000DEB769970FB6F894DEBF0FBECDBFDC01DA
:100D60005D96EC91EE2309F454C1198F088F3F8BE7
:100D70002E8B4E875F87688B798B1C010E945708EA
:100D80006A877B878C879D87F10180819181A28111
:100D9000B3812A853B854C855D85281B390B4A0B21
:100DA0005B0BCA01B9010E94140F2B013C012E8577
:100DB0003F8548895989D101D6966D917D918D9154
:100DC0009C91D9970E94FA0D4B015C01AC019B01EB
:100DD000C301B2010E94CB0FF101248935894689F4
:100DE00057890E94FB0DD62EC72E8F839887862F9A
:100DF0009C2DAF81B885F101848B958BA68BB78B29
:100E0000F48DF987FF2309F445C02DEC3CEC4CE848
:100E10005FE3D1019E966D917D918D919C91D197CB
:100E20000E94CB0F7B018C01D101D2962D913D9177
:100E30004D915C91D5972A8B3B8B4C8B5D8B9B01A5
:100E4000AC016D2D7C2D8F8198850E94670E87FDEA
:100E50001AC02DEC3CEC4CE85FE36A897B898C89F5
:100E60009D890E94CB0F7B018C019B01AC016D2DF4
:100E70007C2D8F8198850E94C60F181624F0ED2CCA
:100E8000FC2C0F811885C701D801F101848B958B4B
:100E9000A68BB78BD10154962D913D914D915C91CC
:100EA000579792966D917D918D919C9195970E9407
:100EB000CB0F6B017C01F101268D378D40A151A133
:100EC000C501B4010E94CB0F9B01AC01C701B60163
:100ED0000E94FB0D6B017C01D10118962D913D9173
:100EE0004D915C911B97C501B4010E94FA0DA301BD
:100EF00092010E946C0EF10126A137A140A551A5D7
:100F00000E94CB0F9B01AC01C701B6010E94FB0DF3
:100F1000D1019A962D913D914D915C919D970E94A2
:100F20006C0E7B018C01B985BB2309F46FC0F10104
:100F300066A477A4C0A8D1A8F2A9FF83D101D39653
:100F4000BC91B887F10144A855A89301A6010E945D
:100F5000670E87FD0EC02F813885A201B701C80139
:100F60000E94C60F3701680118161CF46F80788440
:100F70006201C301D601F10184839583A683B783FF
:100F800080869186A286B3862A853B854C855D85C1
:100F9000208331834283538367E171E08E899F8987
:100FA0000E94F90C8823A1F0688D798DCE010196FD
:100FB0000E94F00C9E012F5F3F4F4E855F85688930
:100FC0007989C1010E945E06CE0101960E94550CEE
:100FD000F101648175818681978169960FB6F894D5
:100FE000DEBF0FBECDBFDF91CF911F910F91FF905C
:100FF000EF90DF90CF90BF90AF909F908F907F90B9
:101000006F905F904F903F902F900895CB01D80143
:10101000B2CF60E070E0CB01E0CF1F920F920FB62D
:101020000F9211242F933F938F939F93AF93BF936E
:101030008091710290917202A0917302B09174023A
:101040003091700223E0230F2D3768F126E8230F3B
:101050000296A11DB11D209370028093710290939E
:101060007202A0937302B093740280916C0290910B
:101070006D02A0916E02B0916F020196A11DB11D8B
:1010800080936C0290936D02A0936E02B0936F02F6
:10109000BF91AF919F918F913F912F910F900FBE74
:1010A0000F901F9018950196A11DB11DD4CF2FB799
:1010B000F894609171027091720280917302909124
:1010C00074022FBF08953FB7F89480916C029091FD
:1010D0006D02A0916E02B0916F0226B5A89B05C06B
:1010E0002F3F19F00196A11DB11D3FBFBA2FA92FA7
:1010F000982F8827BC01CD01620F711D811D911DA4
:1011000042E0660F771F881F991F4A95D1F708950F
:101110008F929F92AF92BF92CF92DF92EF92FF9207
:101120006B017C010E9463084B015C01C114D10476
:10113000E104F104E9F00E94260D0E946308681999
:1011400079098A099B09683E73408105910570F30E
:1011500021E0C21AD108E108F10888EE880E83E088
:10116000981EA11CB11CC114D104E104F10429F79B
:10117000FF90EF90DF90CF90BF90AF909F908F90B7
:101180000895789484B5836084BD85B5836085BDFA
:10119000EEE6F0E0808181608083E1E8F0E082E0CB
:1011A0008083808181608083E0E8F0E080818160DD
:1011B0008083E1EBF0E0808184608083E0EBF0E00D
:1011C00080818160808387E880937A001092C100DB
:1011D0000895883020F08D3008F48DE08E502091F5
:1011E0000A0190E4299F900111248770822B80933B
:1011F0007C0080917A00806480937A0080917A00EC
:1012000086FDFCCF809178009091790008951F931E
:10121000CF93DF93182FEB0161E00E948D09209797
:1012200039F460E0812FDF91CF911F910C94C909AF
:10123000CF3FD10511F461E0F5CFE12FF0E0E8599F
:10124000FF4FE491E43031F140F4E230B1F0E330AB
:10125000E1F0C038D1057CF7E4CFE83029F1E9307E
:1012600059F1E530B1F78091800080628093800071
:10127000D0938B00C0938A0004C084B5806884BD7D
:10128000C7BDDF91CF911F91089584B5806284BD61
:10129000C8BDF7CF80918000806880938000D09394
:1012A0008900C0938800EDCF8091B0008068809362
:1012B000B000C093B300E5CF8091B000806280930E
:1012C000B000C093B400DDCF843081F028F48230C8
:1012D000E9F08330F9F00895883071F0893091F0A9
:1012E0008530B9F4809180008F7D03C080918000AB
:1012F0008F778093800008958091B0008F778093DE
:10130000B00008958091B0008F7DF9CF84B58F77BC
:1013100084BD089584B58F7DFBCFCF93DF9390E09C
:10132000FC01E158FF4F24918A569F4FFC018491A4
:101330008823C9F090E0880F991FFC01EF53FF4FFD
:10134000A591B491FC01E954FF4FC591D49161116D
:101350000DC09FB7F8948C91209582238C9388813F
:10136000282328839FBFDF91CF910895623051F4E5
:101370009FB7F8943C91822F809583238C93E881CA
:101380002E2BEFCF8FB7F894EC912E2B2C938FBF91
:10139000EACF1F93CF93DF93282F30E0F901E8596C
:1013A000FF4F8491F901E158FF4FD491F901EA56BA
:1013B000FF4FC491CC23A9F0162F81110E9464091C
:1013C000EC2FF0E0EE0FFF1FE954FF4FA591B49111
:1013D0008FB7F894EC91111108C0D095DE23DC93FF
:1013E0008FBFDF91CF911F910895DE2BF8CFCF9360
:1013F000DF93282F30E0F901E859FF4F8491F9017C
:10140000E158FF4FD491F901EA56FF4FC491CC2324
:10141000A1F081110E946409EC2FF0E0EE0FFF1F94
:10142000E355FF4FA591B491EC91ED2381E090E05D
:1014300009F480E0DF91CF91089580E090E0FACF49
:101440001F920F920FB60F9211242F938F939F9399
:10145000EF93FF93E0918502F09186028081E09105
:101460008B02F0918C0282FD1BC0908180918E02D4
:101470008F5F8F7320918F02821741F0E0918E026F
:10148000F0E0EB58FD4F958F80938E02FF91EF9126
:101490009F918F912F910F900FBE0F901F901895D5
:1014A0008081F4CF1F920F920FB60F9211242F93C9
:1014B0003F934F935F936F937F938F939F93AF93DC
:1014C000BF93EF93FF9385E792E00E94720DFF9127
:1014D000EF91BF91AF919F918F917F916F915F91AC
:1014E0004F913F912F910F900FBE0F901F90189525
:1014F00085E792E00E94270D21E0892B09F420E086
:10150000822F0895E5E7F2E01382128288EE93E0DD
:10151000A0E0B0E084839583A683B78384E491E060
:101520009183808385EC90E09587848784EC90E0BC
:101530009787868780EC90E0918B808B81EC90E0A0
:10154000938B828B82EC90E0958B848B86EC90E081
:10155000978B868B118E128E138E148E0895AF92F8
:10156000BF92CF92DF92EF92FF920F931F93CF9390
:10157000DF936C017B018B01040F151FEB015E01F2
:10158000AE18BF08C017D10759F06991D601ED9187
:10159000FC910190F081E02DC6010995892B79F726
:1015A000C501DF91CF911F910F91FF90EF90DF90D8
:1015B000CF90BF90AF900895FB0101900020E9F714
:1015C0003197AF01461B570BDC01ED91FC91028076
:1015D000F381E02D09946115710511F00C94DC0A7A
:1015E00090E080E00895DC01ED91FC910190F081A4
:1015F000E02D099461E371E00C94DC0A8F929F92D4
:10160000AF92BF92EF92FF920F931F93CF93DF930E
:10161000CDB7DEB7A1970FB6F894DEBF0FBECDBF32
:101620007C01FA01CB0119A2223008F42AE08E01D4
:101630000F5D1F4F822E912CB12CA12CBF01A50153
:1016400094010E943D10F901CA016A300CF5605DF9
:10165000D8016E938D01232B242B252B79F790E055
:1016600080E0109721F0BD01C7010E94DC0AA1961D
:101670000FB6F894DEBF0FBECDBFDF91CF911F91A3
:101680000F91FF90EF90BF90AF909F908F90089533
:10169000695CDECF2115310541F4DC01ED91FC914F
:1016A0000190F081E02D642F09940C94FE0A9A01B8
:1016B000AB0170E060E00C944A0B2F923F924F9286
:1016C0005F926F927F928F929F92AF92BF92CF92D2
:1016D000DF92EF92FF921F93CF93DF93EC016A01A9
:1016E0007B01722EAB019601CB01B6010E9438102E
:1016F00064E371E0811126C046015701E894B7F810
:101700002FEF3FEF4FE75FE7C501B4010E943810AC
:1017100081110CC02FEF3FEF4FE75FE7C501B40128
:101720000E94670E68E371E0181664F02FEF3FEF38
:101730004FE75FE4C701B6010E94C60F1816B4F464
:101740006CE371E0CE01DF91CF911F91FF90EF909C
:10175000DF90CF90BF90AF909F908F907F906F90D1
:101760005F904F903F902F900C94DC0A2FEF3FEF4B
:101770004FE75FECC701B6010E94670E87FDE0CF1F
:1017800020E030E0A901C701B6010E94670E312CAC
:10179000212C87FF09C06DE2CE010E94F30A1C01D3
:1017A000F7FAF094F7F8F09410E060E070E080E071
:1017B0009FE3711641F020E030E040E251E40E94E6
:1017C0006C0E1F5FF6CFA70196010E94FB0D2B0147
:1017D0003C010E94E50E4B015C012AE0BC01A40122
:1017E000CE010E94FE0A7C01E20CF31C1123B1F130
:1017F000C501B4010E94140F9B01AC01C301B201E9
:101800000E94FA0D4B015C016EE2CE010E94F30AC8
:10181000E80EF91E115010F120E030E040E251E4F2
:10182000C501B4010E94CB0F2B013C010E94E50EC3
:101830004B014AE050E0CE010E94570BE80EF91E22
:10184000B40190E080E00E94140F9B01AC01C30141
:10185000B2010E94FA0D4B015C01DCCFC701DF91A0
:10186000CF911F91FF90EF90DF90CF90BF90AF90FE
:101870009F908F907F906F905F904F903F902F90B0
:1018800008950C945D0B0F931F93CF93DF93EC019E
:101890000E945D0B8C01CE010E94FA0A800F911FFD
:1018A000DF91CF911F910F910895FC01808191816B
:1018B0000C940111CF93DF93EC01888199810097FB
:1018C00011F00E940111198218821D821C821B8254
:1018D0001A82DF91CF9108950F931F93CF93DF93D7
:1018E000EC018B016F5F7F4F888199810E948A1183
:1018F000009751F0998388831B830A8381E0DF91ED
:10190000CF911F910F91089580E0F9CFCF93DF938E
:10191000EC0188819981892B49F08A819B81861706
:10192000970720F081E0DF91CF910895CE010E94CA
:101930006C0C8823C1F38C819D81892B99F7E881F8
:10194000F9811082EFCFEF92FF920F931F93CF9305
:10195000DF93EC017B018A01BA010E94860C8111A0
:101960000BC0CE010E945A0CCE01DF91CF911F9186
:101970000F91FF90EF9008951D830C83B70188812C
:1019800099810E945912F0CFFC01118210821382BA
:101990001282158214826115710551F0FB010190CC
:1019A0000020E9F73197AF01461B570B0C94A30CAD
:1019B0000895CF93DF93EC01FB018617970749F059
:1019C000608171816115710541F0448155810E94EA
:1019D000A30CCE01DF91CF9108950E945A0CF9CF4C
:1019E000FC011182108213821282158214820C94DF
:1019F000D90CFC0124813581232B31F421E0FB013A
:101A0000672B49F4822F08958081918161157105BA
:101A100039F421E0FC0180818823A1F320E0F2CF9A
:101A20000E94501221E0892B69F3F8CF08950E949B
:101A3000C1080E94160D0E949300C4E6DDE00E94DA
:101A400030012097E1F30E94640DF9CF0895FC0165
:101A5000918D228D892F90E0805C9F4F821B910990
:101A60008F7399270895FC01918D828D981731F01D
:101A7000828DE80FF11D858D90E008958FEF9FEF27
:101A80000895FC01918D828D981761F0A28DAE0FA3
:101A9000BF2FB11D5D968C91928D9F5F9F73928F2A
:101AA00090E008958FEF9FEF0895FC01538D448DD2
:101AB000252F30E0842F90E0821B930B541710F0F9
:101AC000CF9608950197089588E79AE0892B49F009
:101AD00080E090E0892B29F00E94780A81110C9413
:101AE00000000895FC01A48DA80FB92FB11DA35AC1
:101AF000BF4F2C91848D90E001968F739927848F2E
:101B0000A689B7892C93A089B1898C9180648C9324
:101B1000938D848D981306C00288F389E02D80810F
:101B20008F7D80830895CF93DF93EC01888D882388
:101B3000B9F0AA89BB89E889F9898C9185FD03C030
:101B4000808186FD0DC00FB607FCF7CF8C9185FF15
:101B5000F2CF808185FFEDCFCE010E94720DE9CFDB
:101B6000DF91CF910895EF92FF920F931F93CF9340
:101B7000DF93EC0181E0888F9B8D8C8D981316C0CC
:101B8000E889F989808185FF11C0EE89FF8960832A
:101B9000E889F98980818064808381E090E0DF9129
:101BA000CF911F910F91FF90EF900895F62E0B8D1E
:101BB00010E00F5F1F4F0F731127E02E8C8D8E11D9
:101BC0000CC00FB607FCFACFE889F989808185FF40
:101BD000F5CFCE010E94720DF1CFEB8DEC0FFD2FF2
:101BE000F11DE35AFF4FF0820B8FEA89FB89808158
:101BF0008062D2CF5058BB27AA270E94120E0C94A5
:101C00008C0F0E947E0F38F00E94850F20F039F46F
:101C10009F3F19F426F40C947B0F0EF4E095E7FB3C
:101C20000C94750FE92F0E949D0F58F3BA176207A5
:101C300073078407950720F079F4A6F50C94BF0F7D
:101C40000EF4E0950B2EBA2FA02D0B01B9019001D7
:101C50000C01CA01A0011124FF27591B99F0593F1B
:101C600050F4503E68F11A16F040A22F232F342F63
:101C70004427585FF3CF469537952795A795F040B1
:101C80005395C9F77EF41F16BA0B620B730B840BC6
:101C9000BAF09150A1F0FF0FBB1F661F771F881F7E
:101CA000C2F70EC0BA0F621F731F841F48F48795D6
:101CB00077956795B795F7959E3F08F0B0CF9395C8
:101CC000880F08F09927EE0F9795879508950E9441
:101CD000510F08F481E008950E94800E0C948C0F3F
:101CE0000E94850F58F00E947E0F40F029F45F3F5C
:101CF00029F00C94750F51110C94C00F0C947B0FAC
:101D00000E949D0F68F39923B1F3552391F3951B1E
:101D1000550BBB27AA2762177307840738F09F5F0C
:101D20005F4F220F331F441FAA1FA9F335D00E2E79
:101D30003AF0E0E832D091505040E695001CCAF7E6
:101D40002BD0FE2F29D0660F771F881FBB1F2617A9
:101D500037074807AB07B0E809F0BB0B802DBF0180
:101D6000FF2793585F4F3AF09E3F510578F00C944F
:101D7000750F0C94C00F5F3FE4F3983ED4F3869543
:101D800077956795B795F7959F5FC9F7880F911D70
:101D90009695879597F90895E1E0660F771F881F5C
:101DA000BB1F621773078407BA0720F0621B730B0F
:101DB000840BBA0BEE1F88F7E09508950E94E50E9C
:101DC0006894B1110C94C00F08950E94A50F88F07B
:101DD0009F5798F0B92F9927B751B0F0E1F0660FEF
:101DE000771F881F991F1AF0BA95C9F714C0B13030
:101DF00091F00E94BF0FB1E008950C94BF0F672FC0
:101E0000782F8827B85F39F0B93FCCF3869577955E
:101E10006795B395D9F73EF4909580957095619547
:101E20007F4F8F4F9F4F0895E89409C097FB3EF472
:101E300090958095709561957F4F8F4F9F4F992317
:101E4000A9F0F92F96E9BB279395F6958795779595
:101E50006795B795F111F8CFFAF4BB0F11F460FF55
:101E60001BC06F5F7F4F8F4F9F4F16C0882311F0AD
:101E700096E911C0772321F09EE8872F762F05C0C1
:101E8000662371F096E8862F70E060E02AF09A955C
:101E9000660F771F881FDAF7880F9695879597F951
:101EA0000895990F0008550FAA0BE0E8FEEF1616EB
:101EB0001706E807F907C0F012161306E407F5073E
:101EC00098F0621B730B840B950B39F40A2661F0B2
:101ED000232B242B252B21F408950A2609F4A14055
:101EE000A6958FEF811D811D089597F99F6780E862
:101EF00070E060E008959FEF80EC089500240A945C
:101F00001616170618060906089500240A941216D4
:101F10001306140605060895092E0394000C11F407
:101F2000882352F0BB0F40F4BF2B11F460FF04C0B4
:101F30006F5F7F4F8F4F9F4F089557FD9058440F0D
:101F4000551F59F05F3F71F04795880F97FB991F18
:101F500061F09F3F79F087950895121613061406D5
:101F6000551FF2CF4695F1DF08C016161706180662
:101F7000991FF1CF86957105610508940895E8943D
:101F8000BB2766277727CB0197F908950E94510F49
:101F900008F48FEF08950E94DE0F0C948C0F0E94BE
:101FA0007E0F38F00E94850F20F0952311F00C94DD
:101FB000750F0C947B0F11240C94C00F0E949D0F81
:101FC00070F3959FC1F3950F50E0551F629FF0018C
:101FD000729FBB27F00DB11D639FAA27F00DB11DA5
:101FE000AA1F649F6627B00DA11D661F829F22272E
:101FF000B00DA11D621F739FB00DA11D621F839FB5
:10200000A00D611D221F749F3327A00D611D231F8A
:10201000849F600D211D822F762F6A2F11249F57D8
:1020200050409AF0F1F088234AF0EE0FFF1FBB1FDB
:10203000661F771F881F91505040A9F79E3F51059A
:1020400080F00C94750F0C94C00F5F3FE4F3983E42
:10205000D4F3869577956795B795F795E7959F5F44
:10206000C1F7FE2B880F911D9695879597F90895D6
:102070000E94510F880B990B0895A1E21A2EAA1BFA
:10208000BB1BFD010DC0AA1FBB1FEE1FFF1FA21728
:10209000B307E407F50720F0A21BB30BE40BF50B25
:1020A000661F771F881F991F1A9469F760957095AE
:1020B000809590959B01AC01BD01CF010895EE0F75
:1020C000FF1F0590F491E02D09940F931F93CF9378
:1020D000DF938230910510F482E090E0E0911403E8
:1020E000F091150330E020E0B0E0A0E0309799F4E3
:1020F0002115310509F44AC0281B390B243031055C
:10210000D8F58A819B816115710589F1FB01938363
:102110008283FE0111C040815181028113814817E1
:102120005907E0F04817590799F4109761F0129693
:102130000C93129713961C933296CF01DF91CF9197
:102140001F910F9108950093140310931503F4CF7A
:102150002115310551F04217530738F0A901DB0171
:102160009A01BD01DF01F801C1CFEF01F9CF9093D2
:10217000150380931403CDCFFE01E20FF31F81936B
:1021800091932250310939832883D7CF20911203AC
:1021900030911303232B41F420910201309103016C
:1021A0003093130320931203209100013091010119
:1021B0002115310541F42DB73EB7409104015091EE
:1021C0000501241B350BE0911203F0911303E21774
:1021D000F307A0F42E1B3F0B2817390778F0AC014A
:1021E0004E5F5F4F2417350748F04E0F5F1F509327
:1021F000130340931203819391939FCFF0E0E0E0AB
:102200009CCFCF93DF930097E9F0FC0132971382C4
:102210001282A0911403B0911503ED0130E020E08B
:102220001097A1F420813181820F931F2091120316
:10223000309113032817390709F061C0F093130395
:10224000E0931203DF91CF910895EA01CE17DF07E3
:10225000E8F54A815B819E0141155105B1F7E9011D
:10226000FB83EA8349915991C40FD51FEC17FD07F1
:1022700061F4808191810296840F951FE901998311
:102280008883828193819B838A83F0E0E0E01296C9
:102290008D919C9113970097B9F52D913C911197D1
:1022A000CD010296820F931F2091120330911303E8
:1022B0002817390739F6309751F510921503109207
:1022C0001403B0931303A0931203BCCFD383C28330
:1022D00040815181840F951FC817D90761F44E5F63
:1022E0005F4F88819981480F591F518340838A81AC
:1022F0009B81938382832115310509F0B0CFF09340
:102300001503E09314039ECFFD01DC01C0CF1382BF
:102310001282D7CFB0E0A0E0E0E9F1E10C946212C4
:102320008C01009751F4CB010E9465108C01C8010B
:10233000CDB7DEB7E0E10C947E12FC01E60FF71F8B
:102340009C0122503109E217F30708F49DC0D9011E
:10235000CD91DC911197C617D70798F0C530D105FC
:1023600030F3CE0104978617970708F3C61BD70BE7
:102370002297C193D1936D937C93CF010E94011159
:10238000D6CF5B01AC1ABD0A4C018C0E9D1EA091EC
:102390001403B0911503512C412CF12CE12C109712
:1023A00031F580911203909113038815990509F076
:1023B0005CC04616570608F058C080910001909105
:1023C0000101009741F48DB79EB7409104015091EF
:1023D0000501841B950BE817F90708F055C0F09329
:1023E0001303E0931203F90171836083A0CF8D91F1
:1023F0009C91119712966C90129713967C9013975C
:10240000A815B90559F56C0142E0C40ED11CCA14D7
:10241000DB0420F1AC014A195B09DA011296159729
:1024200080F06282738251834083D9016D937C93E3
:10243000E114F10471F0D7011396FC93EE93129717
:1024400076CF22968C0F9D1FF90191838083F30133
:10245000EFCFF0931503E093140369CF48165906A4
:1024600008F42C017D01D3019ACFCB010E946510A5
:102470007C01009749F0AE01B8010E944712C801E3
:102480000E940111870153CF10E000E050CFFB0103
:10249000DC0102C001900D9241505040D8F70895E0
:1024A000FB01DC018D91019080190110D9F3990B8A
:1024B0000895FB01DC0101900D920020E1F70895E1
:1024C0002F923F924F925F926F927F928F929F9244
:1024D000AF92BF92CF92DF92EF92FF920F931F9332
:1024E000CF93DF93CDB7DEB7CA1BDB0B0FB6F894E3
:1024F000DEBF0FBECDBF09942A88398848885F8423
:102500006E847D848C849B84AA84B984C884DF8093
:10251000EE80FD800C811B81AA81B981CE0FD11D77
:102520000FB6F894DEBF0FBECDBFED010895F8944D
:02253000FFCFDB
:10253200000016038000FF000730016E6F7665729F
:10254200626F7365006E6F677261706800000000F1
:1025520000C903F803660392036903700383032C23
:10256200000D0A006E616E00696E66006F7666008D
:1025720000000000B30DAF0A550D930D270D410D5C
:02258200330D17
:00000001FF
