:100000000C94ED000C9415010C9415010C94150141
:100010000C9415010C9415010C9415010C94150108
:100020000C9415010C9415010C94E80E0C94770DAA
:100030000C9415010C9415010C9415010C941501E8
:100040000C9415010C9415010C9415010C941501D8
:100050000C9415010C9415010C9415010C94880F47
:100060000C9415010C944C0A0C947E0A0C94150106
:100070000C9415010C9415010C9415010C941501A8
:100080000C9415010C9415010C9415010C94150198
:100090000C9415010C9415010C9415010C94150188
:1000A0000C9415010C9415010C941501E910EC1039
:1000B000DB10DF10E5100D110D110D11F010F41013
:1000C000F810FE1002110D11081112010002EF02CA
:1000D00001404123378000010102030112010002A7
:1000E00000000040412337800001010203014172FA
:1000F0006475696E6F204C4C430041726475696E83
:100100006F204D6963726F0004030904070605043C
:100110000100080A0B0C0D090000000200090F0085
:1001200000030401000C00000000000000000000BB
:100130000000000000000004080201104080401090
:1001400020408040800802040180402010020110FD
:10015000801020404020040404040403040502022B
:100160000202040302020202060606060606040450
:10017000020202040400000000250028002B002ECB
:1001800000310000000000240027002A002D00306C
:1001900000080B0002020201000904000001020233
:1001A00000000524001001052401010104240206B9
:1001B0000524060001070581031000400904010021
:1001C000020A000000070502024000000705830242
:1001D00040000000FD05AE0A541611241FBECFEFEB
:1001E000DAE0DEBFCDBF11E0A0E0B1E0EAE5FEE27B
:1001F00002C005900D92A23CB107D9F724E0A2EC11
:10020000B1E001C01D92AA30B207E1F710E0CDEED7
:10021000D0E004C02197FE010E942517CA3ED107F5
:10022000C9F70E94DC0A0C942B170C9400008EBDB9
:1002300000000DB407FEFDCF8EB508956A9A61E007
:1002400088E00E940E1161E087E00E940E1161E0DB
:1002500085E10E940E11729A61E088E00E944A11C5
:1002600061E087E00E944A1161E085E10E944A1145
:100270000E943415729888E80E94170183E00E945A
:100280001701729A60E088E00E944A1188E80E9493
:10029000170183E00E94170161E088E00E944A1183
:1002A00060E087E00E944A1188E80E94170183E01D
:1002B0000E94170161E087E00E944A1160E085E139
:1002C0000E944A1188E80E94170183E00E941701EA
:1002D00061E085E10C944A11CF92DF92EF92FF9298
:1002E0000F931F93CF93DF9381309105D1F47298D0
:1002F00080E60E94170180E00E941701C82ED12CD1
:1003000080E00E941701E82EF12C80E00E94170186
:10031000082F10E080E00E941701C82FD0E0729AE9
:1003200063C082309105F1F460E088E00E944A11D8
:1003300080E60E94170180E00E941701C82ED12C90
:1003400080E00E941701E82EF12C80E00E94170146
:10035000082F10E080E00E941701C82FD0E061E074
:1003600088E040C083309105F1F460E087E00E94AE
:100370004A1180E60E94170180E00E941701C82EF2
:10038000D12C80E00E941701E82EF12C80E00E9421
:100390001701082F10E080E00E941701C82FD0E05D
:1003A00061E087E01FC00497F9F460E085E10E94F6
:1003B0004A1180E60E94170180E00E941701C82EB2
:1003C000D12C80E00E941701E82EF12C80E00E94E1
:1003D0001701082F10E080E00E941701C82FD0E01D
:1003E00061E085E10E944A117C2D66276E0D7F1D1C
:1003F000CB01A0E0B0E0BA2FA92F982F8827800F5B
:10040000911FA11DB11DBA2FA92F982F8827BC01BC
:10041000CD016C0F7D1F811D911DDF91CF911F912B
:100420000F91FF90EF90DF90CF9008954F925F92E1
:100430006F927F928F929F92AF92BF92CF92DF92F4
:10044000EF92FF92CF93DF938091C3019091C4010B
:1004500001969093C4018093C301883C91058CF56B
:1004600020E030E04CE852E460913A0170913B01A9
:1004700080913C0190913D010E94B4086093DF029D
:100480007093E0028093E1029093E2026093DB02BA
:100490007093DC028093DD029093DE026093D702BA
:1004A0007093D8028093D9029093DA026093D302BA
:1004B0007093D4028093D5029093D6021092C20119
:1004C00038C0803991408CF520E030E0A90160917E
:1004D0003A0170913B0180913C0190913D010E9455
:1004E000B4086093DF027093E0028093E10290937E
:1004F000E2026093DB027093DC028093DD02909352
:10050000DE026093D7027093D8028093D902909351
:10051000DA026093D3027093D4028093D502909351
:10052000D60281E08093C20104C01092C4011092EF
:10053000C30181E090E00E946C016093CF02709350
:10054000D0028093D1029093D2020E94FF07609361
:10055000BF027093C0028093C1029093C20282E0F6
:1005600090E00E946C016093CB027093CC02809368
:10057000CD029093CE020E94FF076093BB0270935E
:10058000BC028093BD029093BE0283E090E00E9483
:100590006C016093C7027093C8028093C902909364
:1005A000CA020E94FF076093B7027093B80280935B
:1005B000B9029093BA0284E090E00E946C016093CB
:1005C000C3027093C4028093C5029093C6020E9436
:1005D000FF076093B3027093B4028093B5029093C7
:1005E000B6028CE792E00E94791185E492E00E94C5
:1005F00079118EE092E00E94791187ED91E00E94DE
:10060000791120E030E0A9016091F3027091F402C9
:100610008091F5029091F6020E94570787FF04C06F
:100620001092370160E004C081E08093370161E0FF
:1006300084E00E944A1120E030E0A9016091EF02BD
:100640007091F0028091F1029091F2020E9457079E
:1006500087FF04C01092360160E004C081E08093FF
:10066000360161E086E00E944A1120E030E0A901F5
:100670006091EB027091EC028091ED029091EE029C
:100680000E94570787FF04C01092350160E004C044
:1006900081E08093350161E08CE00E944A1120E006
:1006A00030E0A9016091E7027091E8028091E902CF
:1006B0009091EA020E94570787FF04C0109234010C
:1006C0005D9804C081E0809334015D9AC090F3028C
:1006D000D090F402E090F502F090F60220E030E0D5
:1006E000A901C701B6010E94AF0818161CF4C70182
:1006F000B60103C0C701B60190580E94CE0770939F
:10070000990060939800C090EF02D090F002E090C2
:10071000F102F090F20220E030E0A901C701B60139
:100720000E94AF0818161CF4C701B60103C0C70128
:10073000B60190580E94CE0770938900609388009C
:10074000C090EB02D090EC02E090ED02F090EE024F
:1007500020E030E0A901C701B6010E94AF081816D9
:100760001CF4C701B60103C0C701B60190580E942E
:10077000CE0770938B0060938A00C090E702D09000
:10078000E802E090E902F090EA0220E030E0A901FE
:10079000C701B6010E94AF0818161CF4C701B601C4
:1007A00003C0C701B60190580E94CE076093CF00E6
:1007B00082E10E94A0109093D6018093D50183E13D
:1007C0000E94A0109093D4018093D30184E10E94F1
:1007D000A010EC019093D2018093D101C090000150
:1007E000D0900101E0900201F0900301A701960171
:1007F00060E070E080E89FE30E94EA064B015C0144
:100800006091D5017091D601072E000C880B990BD1
:100810000E94FF07A70196010E94B4082B013C012A
:100820002091CD013091CE014091CF015091D00166
:10083000C501B4010E94B4089B01AC01C301B2011F
:100840000E94EB066093CD017093CE018093CF019F
:100850009093D0016091D3017091D401072E000CC8
:10086000880B990B0E94FF07A70196010E94B4080C
:100870002B013C012091C9013091CA014091CB016B
:100880005091CC01C501B4010E94B4089B01AC0198
:10089000C301B2010E94EB066093C9017093CA01C3
:1008A0008093CB019093CC012091C5013091C6017A
:1008B0004091C7015091C801C501B4010E94B4081C
:1008C0004B015C01BE01DD0F880B990B0E94FF07F5
:1008D000A70196010E94B4089B01AC01C501B401B7
:1008E0000E94EB066093C5017093C6018093C70117
:1008F0009093C80162E571E08BEF92E00E942E0BAD
:100900006CE571E08BEF92E00E94340B65E070E0E3
:1009100080E090E0DF91CF91FF90EF90DF90CF905B
:10092000BF90AF909F908F907F906F905F904F900F
:100930000C940310729888E90E94170180E00E94CD
:10094000170180E00E94170180E00E94170180E0FB
:100950000E941701729A84E690E00E943F107298FC
:1009600080EE0E941701729A60E088E00E944A11AE
:1009700088E90E94170180E00E94170180E00E9430
:10098000170180E00E94170180E00E94170161E0DA
:1009900088E00E944A1184E690E00E943F1060E0E7
:1009A00088E00E944A1180EE0E94170161E088E011
:1009B0000E944A1160E087E00E944A1188E90E9483
:1009C000170180E00E94170180E00E94170180E07B
:1009D0000E94170180E00E94170161E087E00E94F9
:1009E0004A1184E690E00E943F1060E087E00E9498
:1009F0004A1180EE0E94170161E087E00E944A11CF
:100A000060E085E10E944A1188E90E94170180E0B8
:100A10000E94170180E00E94170180E00E941701E8
:100A200080E00E94170161E085E10E944A1184E69E
:100A300090E00E943F1060E085E10E944A1180EE44
:100A40000E94170161E085E10C944A110F931F93F6
:100A500026E040E855E260E070E08BEF92E00E9413
:100A6000E70961E084E00E940E1161E085E00E94E8
:100A70000E1161E086E00E940E1161E089E00E94A3
:100A80000E1161E08CE00E940E1161E08AE00E948C
:100A90000E1161E08DE00E940E1161E070E08CE7C4
:100AA00092E00E94651462E070E08CE792E00E94A0
:100AB000571300E010E02FE733E440E050E06FE729
:100AC00073EC8CE792E00E949F1361E070E085E494
:100AD00092E00E94651462E070E085E492E00E947A
:100AE000571300E010E02FE733E440E050E06FE7F9
:100AF00073EC85E492E00E949F1361E070E08EE069
:100B000092E00E94651462E070E08EE092E00E9444
:100B1000571300E010E02FE733E440E050E06FE7C8
:100B200073EC8EE092E00E949F1361E070E087ED2D
:100B300091E00E94651462E070E087ED91E00E9410
:100B4000571300E010E02FE733E440E050E06FE798
:100B500073EC87ED91E00E949F130E941E0166E6F0
:100B600071E08BEF92E00E94340B65E070E080E072
:100B700090E00E9403100E949A046EE771E08BEFF0
:100B800092E00E94340BE0E8F0E080818160808395
:100B9000A1E8B0E08C9188608C938C9181608C93FB
:100BA000808180688083808180628083E0E9F0E0DA
:100BB000808181608083A1E9B0E08C9188608C9312
:100BC0008C9181608C93808180688083E0ECF0E080
:100BD000808182608083A3ECB0E08C918C93A1EC47
:100BE000B0E08C9181608C938081806880838FEFEE
:100BF0008093D1001F910F910895AF92BF92CF9231
:100C0000DF92EF92FF920F931F93609138017091E2
:100C10003901072E000C880B990B0E94FF072091C9
:100C20003A0130913B0140913C0150913D010E94BD
:100C3000B4089B01AC0160E070E084EB93E40E9497
:100C40005C076093F7027093F8028093F902909327
:100C5000FA02809137018093E602809136018093F9
:100C6000E502809135018093E40280913401809304
:100C7000E302A0902C01B0902D01C0902E01D090E5
:100C80002F01E0903001F09031010091320110917C
:100C900033011F921F9280912B018F9380912A0123
:100CA0008F93809129018F93809128018F932FED4D
:100CB00032E043EF52E06FEB72E08CE792E00E948B
:100CC000B714A0902001B0902101C0902201D090D3
:100CD0002301E0902401F09025010091260110915C
:100CE00027011F921F9280911F018F9380911E01F7
:100CF0008F9380911D018F9380911C018F932BED19
:100D000032E04FEE52E06BEB72E085E492E00E943D
:100D1000B714A0901401B0901501C0901601D090A6
:100D20001701E0901801F090190100911A0110913B
:100D30001B011F921F92809113018F9380911201CA
:100D40008F93809111018F93809110018F9327EDE4
:100D500032E04BEE52E067EB72E08EE092E00E94F0
:100D6000B714A0900801B0900901C0900A01D0907A
:100D70000B01E0900C01F0900D0100910E0110911B
:100D80000F011F921F92809107018F93809106019E
:100D90008F93809105018F93809104018F9323EDB0
:100DA00032E047EE52E063EB72E087ED91E00E94A3
:100DB000B7148DB79EB748960FB6F8949EBF0FBE76
:100DC0008DBF1F910F91FF90EF90DF90CF90BF905C
:100DD000AF9008955058BB27AA270E9402070C9491
:100DE00075080E94670838F00E946E0820F039F4F8
:100DF0009F3F19F426F40C9464080EF4E095E7FB89
:100E00000C945E08E92F0E94860858F3BA1762070F
:100E100073078407950720F079F4A6F50C94A808C9
:100E20000EF4E0950B2EBA2FA02D0B01B901900105
:100E30000C01CA01A0011124FF27591B99F0593F49
:100E400050F4503E68F11A16F040A22F232F342F91
:100E50004427585FF3CF469537952795A795F040DF
:100E60005395C9F77EF41F16BA0B620B730B840BF4
:100E7000BAF09150A1F0FF0FBB1F661F771F881FAC
:100E8000C2F70EC0BA0F621F731F841F48F4879504
:100E900077956795B795F7959E3F08F0B0CF9395F6
:100EA000880F08F09927EE0F9795879508950E946F
:100EB0003A0808F481E008950E9470070C947508C0
:100EC0000E946E0858F00E94670840F029F45F3FC6
:100ED00029F00C945E0851110C94A9080C94640834
:100EE0000E94860868F39923B1F3552391F3951B6B
:100EF000550BBB27AA2762177307840738F09F5F3B
:100F00005F4F220F331F441FAA1FA9F335D00E2EA7
:100F10003AF0E0E832D091505040E695001CCAF714
:100F20002BD0FE2F29D0660F771F881FBB1F2617D7
:100F300037074807AB07B0E809F0BB0B802DBF01AE
:100F4000FF2793585F4F3AF09E3F510578F00C947D
:100F50005E080C94A9085F3FE4F3983ED4F38695AD
:100F600077956795B795F7959F5FC9F7880F911D9E
:100F70009695879597F90895E1E0660F771F881F8A
:100F8000BB1F621773078407BA0720F0621B730B3D
:100F9000840BBA0BEE1F88F7E09508950E948E0827
:100FA00088F09F5798F0B92F9927B751B0F0E1F02A
:100FB000660F771F881F991F1AF0BA95C9F714C0DA
:100FC000B13091F00E94A808B1E008950C94A808EF
:100FD000672F782F8827B85F39F0B93FCCF3869513
:100FE00077956795B395D9F73EF490958095709570
:100FF00061957F4F8F4F9F4F0895E89409C097FBED
:101000003EF490958095709561957F4F8F4F9F4FDF
:101010009923A9F0F92F96E9BB279395F695879523
:1010200077956795B795F111F8CFFAF4BB0F11F4E6
:1010300060FF1BC06F5F7F4F8F4F9F4F16C088238D
:1010400011F096E911C0772321F09EE8872F762FC3
:1010500005C0662371F096E8862F70E060E02AF004
:101060009A95660F771F881FDAF7880F96958795F0
:1010700097F90895990F0008550FAA0BE0E8FEEFC5
:1010800016161706E807F907C0F012161306E4074C
:10109000F50798F0621B730B840B950B39F40A2645
:1010A00061F0232B242B252B21F408950A2609F423
:1010B000A140A6958FEF811D811D089597F99F6727
:1010C00080E870E060E008959FEF80EC08950024D0
:1010D0000A941616170618060906089500240A949D
:1010E00012161306140605060895092E0394000C23
:1010F00011F4882352F0BB0F40F4BF2B11F460FFB2
:1011000004C06F5F7F4F8F4F9F4F089557FD9058DA
:10111000440F551F59F05F3F71F04795880F97FBBB
:10112000991F61F09F3F79F0879508951216130675
:101130001406551FF2CF4695F1DF08C016161706A4
:101140001806991FF1CF86957105610508940895D9
:10115000E894BB2766277727CB0197F908950E946B
:101160003A0808F48FEF08950E94C7080C94750898
:101170000E94670838F00E946E0820F0952311F055
:101180000C945E080C94640811240C94A9080E9425
:10119000860870F3959FC1F3950F50E0551F629F2D
:1011A000F001729FBB27F00DB11D639FAA27F00DC0
:1011B000B11DAA1F649F6627B00DA11D661F829FE7
:1011C0002227B00DA11D621F739FB00DA11D621FCC
:1011D000839FA00D611D221F749F3327A00D611DE9
:1011E000231F849F600D211D822F762F6A2F1124CB
:1011F0009F5750409AF0F1F088234AF0EE0FFF1FFE
:10120000BB1F661F771F881F91505040A9F79E3F54
:10121000510580F00C945E080C94A9085F3FE4F33C
:10122000983ED4F3869577956795B795F795E795AA
:101230009F5FC1F7FE2B880F911D9695879597F9B3
:101240000895FC01918D228D892F90E0805C9F4F45
:10125000821B91098F7399270895FC01918D828DCE
:10126000981731F0828DE80FF11D858D90E008957B
:101270008FEF9FEF0895FC01918D828D981761F09B
:10128000828DDF01A80FB11D5D968C91928D9F5FBD
:101290009F73928F90E008958FEF9FEF089584EAF7
:1012A0009AE0892B49F080E090E0892B29F00E9498
:1012B000A40A81110C9400000895FC01848DDF01C3
:1012C000A80FB11DA35ABF4F2C91848D90E00196B9
:1012D0008F739927848FA689B7892C93A089B189A8
:1012E0008C9180648C93938D848D981306C00288B2
:1012F000F389E02D80818F7D80830895EF92FF92A6
:101300000F931F93CF93DF93EC0181E0888F9B8D28
:101310008C8D981305C0E889F989808185FD24C0EA
:10132000F62E0B8D10E00F5F1F4F0F731127E02E6D
:101330008C8DE8120CC00FB607FCFACFE889F9894A
:10134000808185FFF5CFCE010E945D09F1CF8B8DA5
:10135000FE01E80FF11DE35AFF4FF0820B8FEA897F
:10136000FB898081806207C0EE89FF896083E889FC
:10137000F98980818064808381E090E0DF91CF9162
:101380001F910F91FF90EF900895CF93DF93EC01A1
:10139000888D8823C9F0EA89FB89808185FD05C095
:1013A000A889B9898C9186FD0FC00FB607FCF5CFCF
:1013B000808185FFF2CFA889B9898C9185FFEDCF17
:1013C000CE010E945D09E7CFDF91CF910895CF92C2
:1013D000DF92EF92FF921F93CF93DF93EC016A01AC
:1013E0007B01122FE889F98982E080834115514EF3
:1013F00061057105B1F060E079E08DE390E0A7014F
:1014000096010E940317DA01C9010197A109B109E8
:10141000B695A795979587959C01211580E138078A
:10142000A8F0E889F989108260E874E88EE190E01C
:10143000A70196010E940317DA01C9010197A109CA
:10144000B109B695A795979587959C01EC85FD8583
:101450003083EE85FF852083188EEC89FD8910830B
:10146000EA89FB89808180618083EA89FB898081A8
:1014700088608083EA89FB89808180688083EA892B
:10148000FB8980818F7D8083DF91CF911F91FF90B9
:10149000EF90DF90CF9008951F920F920FB60F92AA
:1014A00011242F938F939F93EF93FF93E0910B035E
:1014B000F0910C038081E0911103F091120382FD01
:1014C00012C09081809114038F5F8F732091150358
:1014D000821751F0E0911403F0E0E550FD4F958F35
:1014E0008093140301C08081FF91EF919F918F91B0
:1014F0002F910F900FBE0F901F9018951F920F9273
:101500000FB60F9211242F933F934F935F936F93D6
:101510007F938F939F93AF93BF93EF93FF938BEF43
:1015200092E00E945D09FF91EF91BF91AF919F9171
:101530008F917F916F915F914F913F912F910F907C
:101540000FBE0F901F9018958BEF92E00E9421091B
:1015500021E0892B09F420E0822F0895EBEFF2E0DF
:101560001382128288EE93E0A0E0B0E0848395833A
:10157000A683B78386E991E0918380838DEC90E028
:10158000958784878CEC90E09787868788EC90E03D
:10159000918B808B89EC90E0938B828B8AEC90E02E
:1015A000958B848B8EEC90E0978B868B118E128EB0
:1015B000138E148E089508950E944A100E94DB0A2B
:1015C00088E993E00E94690F0E942605CFE4D9E0E4
:1015D0000E9416022097E1F30E944F09F9CFCF92A3
:1015E000DF92EF92FF920F931F93CF93DF936C01E3
:1015F0007A018B01C0E0D0E0CE15DF0581F0D80183
:101600006D918D01D601ED91FC910190F081E02D5D
:10161000C6010995892B11F02196EECF7E01C701F5
:10162000DF91CF911F910F91FF90EF90DF90CF90BE
:1016300008956115710579F0FB0101900020E9F72B
:101640003197AF01461B570BDC01ED91FC910280F5
:10165000F381E02D099480E090E008950C94190B3B
:1016600062EA71E00C94190B0F931F93CF93DF93F1
:10167000EC010E94190B8C01CE010E94300B800FEF
:10168000911FDF91CF911F910F910895615030F01C
:101690002091F100FC0120830196F8CF289A84E67E
:1016A0008093A103089540919C0350919D03209144
:1016B0009A0330919B0342175307B4F49091E800CA
:1016C0009570E1F39091E80092FD19C08093F100CC
:1016D00080919C0390919D0301968F739927892B8C
:1016E00019F48EEF8093E80080919C0390919D0304
:1016F000019690939D0380939C0381E0089580E080
:101700000895DF92EF92FF920F931F93CF93DF9391
:10171000D82EF92EE42E062F10E0C8010196880F6E
:101720000E94530B83E00E94530BCD2DDF2D0C0F35
:101730001D1FC017D10789F0E7FE03C0FE01849189
:1017400001C088810E94530BF82E80E00E94530B49
:101750008F2121968111EDCF01C081E0DF91CF91E2
:101760001F910F91FF90EF90DF9008958091D70027
:1017700081608093D70080EA8093D80089B580612A
:1017800089BD89B5826089BD09B400FEFDCF61E0E5
:1017900070E080E090E00E9403108091D8008F7C80
:1017A00080618093D8008091E000807F8093E0008A
:1017B0000895CF93DF931F92CDB7DEB71982CE0184
:1017C00001960E94C7150E94EF16BE016F5F7F4F02
:1017D0000E946A1689810F90DF91CF9108952FB7EB
:1017E000FC012083F89467706093E9000895CF931B
:1017F000DF931F92CDB7DEB7682FCE0101960E940E
:10180000EF0B8091F20099819FBF0F90DF91CF91F4
:101810000895EF92FF920F931F93CF93DF931F9240
:10182000CDB7DEB79091A003992311F057FF03C005
:101830008FEF9FEF29C08A017B01682FCE010196AF
:101840000E94EF0B2091F20030E0021713070CF416
:101850009801822FF70194E6815038F0289A9093EE
:10186000A1034091F1004193F7CF2115310521F0FB
:101870008091F200882321F089818FBFC90104C0C3
:101880008BE68093E800F8CF0F90DF91CF911F9106
:101890000F91FF90EF900895CF93DF931F92CDB7F4
:1018A000DEB741E050E0BE016F5F7F4F0E94090C40
:1018B000019719F4898190E002C08FEF9FEF0F909C
:1018C000DF91CF910895CF93DF931F92CDB7DEB70D
:1018D000682FCE0101960E94EF0B9091E800892FAE
:1018E000807295FF04C09091F2008FE3891B99816B
:1018F0009FBF0F90DF91CF9108956F927F928F924B
:101900009F92AF92BF92CF92DF92EF92FF920F938E
:101910001F93CF93DF931F92CDB7DEB7A82E6B0135
:10192000B42E052F8091A003811103C08FEF9FEF8C
:1019300069C080919E0380FF05C08091E0008260B5
:101940008093E000EB2CF02E8AEF982E8A2D807287
:10195000782E9AE3892E8A2D8074682EE114F10482
:1019600009F446C08A2D0E94630C182F81110AC009
:101970009A949920D9F261E070E080E090E00E94B2
:101980000310ECCF90E0E816F9060CF41E2D6A2D3A
:10199000CE0101960E94EF0B8091E80085FF25C0E3
:1019A000812F90E0E81AF90A772029F01150A0F071
:1019B0001092F100FBCFF601A7FE0AC0115050F0C3
:1019C00024912093F1003196F9CF21912093F100D9
:1019D0001150D8F7C80ED91E8091E80085FF0FC0BE
:1019E000E114F10411F461100AC089818FBFB6CFF0
:1019F0005D9A84E68093A2038B2D902F03C0809282
:101A0000E800F3CF0F90DF91CF911F910F91FF90DE
:101A1000EF90DF90CF90BF90AF909F908F907F908E
:101A20006F9008951092E90010929D0310929C030C
:101A300090939B0380939A030895DF92EF92FF9215
:101A40000F931F93CF93DF93D82E8A017B01E40E6F
:101A5000F51EEB01CE15DF0571F0D7FE03C0FE01C8
:101A6000849101C088810E94530B21968111F2CF8D
:101A70008FEF9FEF01C0C801DF91CF911F910F91B0
:101A8000FF90EF90DF900895AF92BF92DF92EF92B8
:101A9000FF920F931F93CF93DF935C018B01EB01B8
:101AA0009BEFD92E2097C1F07E01C134D1051CF0E7
:101AB00080E4E82EF12C8091E80082FFFCCFC80181
:101AC0008C1B9D0B6E2D8A0D9B1D0E94460BD09288
:101AD000E800CE19DF09E6CFC801DF91CF911F9151
:101AE0000F91FF90EF90DF90BF90AF9008951F92FD
:101AF0000F920FB60F921124CF92DF92EF92FF92C6
:101B00000F931F932F933F934F935F936F937F9305
:101B10008F939F93AF93BF93EF93FF93CF93DF93F5
:101B2000CDB7DEB76C97DEBFCDBF1092E9008091D4
:101B3000E80083FF24C168E0CE0145960E94460B71
:101B400082EF8093E8008D8987FF05C09091E800BF
:101B500090FFFCCF03C09EEF9093E800982F907603
:101B600009F0E5C09E894F89588D2F89188D9111F4
:101B70000CC0803829F480919F038093F10002C04B
:101B80001092F1001092F100F3C0913051F48111E4
:101B9000EFC04130510509F0EBC080919F038D7F6C
:101BA0000BC0933061F48111E3C04130510509F05D
:101BB000DFC080919F03826080939F03D9C09530DE
:101BC00049F48091E80080FFFCCF822F80688093E9
:101BD000E300CEC0963009F07DC0EB8CFC8C123057
:101BE00069F580E090E00E94120D0E94D90B99E007
:101BF0009E012F5F3F4F6901F901292F11922A950C
:101C0000E9F799831A8391E09E8390EA98879AEF87
:101C1000998720919C0330919D03275F3F4F3C8320
:101C20002B838D83C7010E94120D49E050E0B6015D
:101C300080E00E941D0D0E94D90B9AC0C7010E942E
:101C4000120D0E94EF16BE016B5E7F4F0E9493162D
:101C5000009719F00CF08CC08FC0113071F48B8D8F
:101C60009C8D089719F481E08093990380919903E2
:101C7000811173C06CED70E075C0133009F07CC049
:101C80008F89882309F46CC0823029F440E86DE024
:101C90008AEF90E006C0813039F440E86BE08EEEC8
:101CA00090E00E94810B56C0833009F065C00E940D
:101CB000EF168E010F5F1F4FB8010E94B216F80198
:101CC00001900020E9F73197BF01601B710B40E0E4
:101CD000C801E7CF973009F44FC0983021F481E074
:101CE0008093F10045C0993009F042C0837009F03B
:101CF00043C0EFE3F1E081E031E096E32081211180
:101D000009C08EE78093EA001092EA008F898093E1
:101D1000A0032EC08093E9003093EB002191209323
:101D2000EC009093ED008F5F873041F7EACF8B8D09
:101D30009C8D0E94120D898D811105C0CE014596A2
:101D40000E94D21507C00E94EF16BE016B5E7F4F46
:101D50000E94D116882381F00BC06AEC70E002C0AB
:101D600068E071E0FB01449150E080E80E941D0DA5
:101D70008EEF8093E80003C081E28093EB006C96C5
:101D80000FB6F894DEBF0FBECDBFDF91CF91FF91AC
:101D9000EF91BF91AF919F918F917F916F915F91E3
:101DA0004F913F912F911F910F91FF90EF90DF90F6
:101DB000CF900F900FBE0F901F9018958093E90061
:101DC0008091F200882319F08AE38093E800089557
:101DD0001F920F920FB60F9211242F933F934F93A0
:101DE0005F936F937F938F939F93AF93BF93CF93A3
:101DF000EF93FF93C091E1008091E100837F809396
:101E0000E100C3FF0FC01092E90081E08093EB0076
:101E10001092EC0082E38093ED001092A00388E022
:101E20008093F000C2FF19C083E00E94DE0E809113
:101E3000A203882339F08091A20381508093A203EA
:101E4000882389F18091A103882339F08091A1032F
:101E500081508093A103882341F1C4FF10C0809179
:101E6000E2008E7E81608093E2008091E1008F7EAF
:101E70008093E10080919E038E7E806111C0C0FF3F
:101E800016C08091E2008E7E80618093E200809196
:101E9000E1008E7E8093E10080919E038E7E8160C2
:101EA00080939E0304C05D98CDCF2898D6CFFF9134
:101EB000EF91CF91BF91AF919F918F917F916F9152
:101EC0005F914F913F912F910F900FBE0F901F90F8
:101ED00018951092A00310929F0310929E030E94E7
:101EE000B60B8091E1008E7E8093E1008DE08093BF
:101EF000E200559A209A5D982898EEEFFFE78591C9
:101F000094918B3F9C4D19F481E08093FD030895DB
:101F10001F920F920FB60F9211242F933F938F931E
:101F20009F93AF93BF938091A4039091A503A09139
:101F3000A603B091A7033091A30323E0230F2D370D
:101F400020F40196A11DB11D05C026E8230F0296BD
:101F5000A11DB11D2093A3038093A4039093A50317
:101F6000A093A603B093A7038091A8039091A9031F
:101F7000A091AA03B091AB030196A11DB11D80935E
:101F8000A8039093A903A093AA03B093AB03BF91B6
:101F9000AF919F918F913F912F910F900FBE0F9016
:101FA0001F9018952FB7F8946091A4037091A50322
:101FB0008091A6039091A7032FBF08953FB7F8948F
:101FC0008091A8039091A903A091AA03B091AB03BB
:101FD00026B5A89B05C02F3F19F00196A11DB11D84
:101FE0003FBFBA2FA92F982F8827820F911DA11DBF
:101FF000B11DBC01CD0142E0660F771F881F991FFC
:102000004A95D1F708958F929F92AF92BF92CF9247
:10201000DF92EF92FF926B017C010E94DE0F4B0179
:102020005C01C114D104E104F10401F10E946916BC
:102030000E94DE0FDC01CB0188199909AA09BB09AE
:10204000883E9340A105B10560F321E0C21AD10892
:10205000E108F10888EE880E83E0981EA11CB11CEF
:10206000C114D104E104F10419F7DBCFFF90EF9024
:10207000DF90CF90BF90AF909F908F900895823067
:10208000910538F0880F991F880F991F05970197C0
:10209000F1F70895789484B5826084BD84B5816039
:1020A00084BD85B5826085BD85B5816085BDEEE660
:1020B000F0E0808181608083E1E8F0E0108280813F
:1020C00082608083808181608083E0E8F0E08081AD
:1020D00081608083E1E9F0E080818260808380819B
:1020E00081608083E0E9F0E0808181608083E1ECC1
:1020F000F0E0808184608083808182608083808141
:1021000081608083E3ECF0E0808181608083E0EC9B
:10211000F0E0808182608083E2ECF0E08081816089
:102120008083EAE7F0E08081846080838081826040
:10213000808380818160808380818068808308952E
:10214000823108F08251E82FF0E0E45FFE4FE49125
:1021500080917B00E3FB222720F930E095E0220FFD
:10216000331F9A95E1F78F7D282B20937B00809178
:10217000450120E4829FC0011124E770E82BE09321
:102180007C0080917A00806480937A0080917A004C
:1021900086FDFCCF809178002091790090E0922B11
:1021A000089590E0FC013197EF30F105B0F5EA5A5F
:1021B000FF4F0C942517809180008F7703C080918A
:1021C00080008F7D80938000089580918000877FBC
:1021D000F9CF84B58F7702C084B58F7D84BD089513
:1021E000809190008F7707C0809190008F7D03C011
:1021F00080919000877F8093900008958091C00027
:102200008F7703C08091C0008F7D8093C0000895B8
:102210008091C200877F8093C2000895CF93DF939F
:1022200090E0FC01E95CFE4F2491FC01EA5AFE4F6C
:102230008491882361F190E0880F991FFC01ED578C
:10224000FE4FC591D491FC01EB58FE4FA591B4917E
:10225000611109C09FB7F8948881209582238883F3
:10226000EC912E230BC0623061F49FB7F894888103
:10227000322F309583238883EC912E2B2C939FBF94
:1022800006C08FB7F894E8812E2B28838FBFDF918B
:10229000CF9108951F93CF93DF93282F30E0F9015A
:1022A000E85EFE4F8491F901E95CFE4FD491F9019B
:1022B000EA5AFE4FC491CC23C1F0162F81110E941F
:1022C000D110EC2FF0E0EE0FFF1FEB58FE4FA59161
:1022D000B4919FB7F894111104C08C91D095D82374
:1022E00002C0EC91DE2BDC939FBFDF91CF911F9159
:1022F00008952F923F924F925F926F927F928F92AA
:102300009F92AF92BF92CF92DF92EF92FF920F9384
:102310001F93CF93DF93CDB7DEB72A970FB6F8940C
:10232000DEBF0FBECDBFDC01D6962C91222309F46F
:10233000E9C09A8789870E94D20F69837A838B8349
:102340009C83E985FA8580A191A129813A81281B86
:10235000390B84A595A5281739070CF4D3C0028C36
:10236000F38DE02D80809180A280B380A985BA850D
:102370005E96ED91FC915F97A5019401608171815A
:10238000828193810E94EA062B013C01E985FA854E
:1023900020893189428953890E94B408A985BA8568
:1023A00094962D913D914D915C9197970E94EB06EB
:1023B0006B017C01E985FA8564A375A386A397A3C5
:1023C00012A903A934A825A8212F302F432D522D5F
:1023D0000E94AF0818162CF4812F902FA32DB22D38
:1023E00018C0A985BA859E968D919D910D90BC913E
:1023F000A02D8D839E83AF83B8879C01AD01C7015B
:10240000B6010E94570787FF0AC08D819E81AF8168
:10241000B885E985FA8584A395A3A6A3B7A3A98562
:10242000BA851C962D913D914D915C911F97C301EA
:10243000B2010E94B408E985FA8524A135A146A11C
:1024400057A10E94EB066B017C01A985BA8598967D
:102450002D913D914D915C919B97C501B4010E94D6
:10246000EA06E985FA8524893589468957890E94D3
:10247000B4089B01AC01C701B6010E94EA066B01DA
:102480007C019B01AC01612F702F832D922D0E9446
:10249000570787FD1BC0A985BA859E961C919E97FC
:1024A0009F960C919F97D0963C90D097D1962C9068
:1024B000212F302F432D522DB601C7010E945707FF
:1024C00087FD04C01C2D0D2D3E2C2F2CA985BA850F
:1024D0005C96ED91FC915D97812F902FA32DB22DED
:1024E00080839183A283B383E985FA8580A691A630
:1024F000A2A6B3A689819A81AB81BC8180A391A356
:10250000A2A3B3A32A960FB6F894DEBF0FBECDBF29
:10251000DF91CF911F910F91FF90EF90DF90CF90BF
:10252000BF90AF909F908F907F906F905F904F90F3
:102530003F902F9008954F925F926F927F928F926B
:102540009F92AF92BF92CF92DF92EF92FF920F9342
:102550001F93CF93DF9300D000D000D0CDB7DEB76C
:102560009E838D832A013B014801590120E030E020
:10257000A901C301B2010E94570787FD81C020E075
:1025800030E0A901C501B4010E94570787FD78C05A
:1025900020E030E0A901C701B6010E94570787FD7E
:1025A0006FC0ED81FE81408251826282738284829B
:1025B0009582A682B782C086D186E286F38664A51C
:1025C00075A5072E000C880B990B0E94FF0720E0D1
:1025D00030E04AE754E40E945C0769837A838B8386
:1025E0009C83ED81FE8144865586668677869B01B5
:1025F000AC01C501B4010E94B4084B015C01ED813E
:10260000FE81608B718B828B938B29813A814B8108
:102610005C81C701B6010E945C076B017C01ED8102
:10262000FE81648B758B868B978B808D918D019746
:1026300039F5A301920160E070E0CB010E94EA0647
:10264000ED81FE816487758786879787A501940150
:1026500060E070E0CB010E94EA06ED81FE81608BB4
:10266000718B828B938BA701960160E070E0CB01A8
:102670000E94EA06ED81FE81648B758B868B978BB9
:1026800026960FB6F894DEBF0FBECDBFDF91CF9177
:102690001F910F91FF90EF90DF90CF90BF90AF9080
:1026A0009F908F907F906F905F904F900895CF9202
:1026B000DF92EF92FF920F931F93CF93DF93161643
:1026C0001706A4F58B01EC01072E000C880B990B63
:1026D0000E94FF076B017C016CA57DA5072E000CF5
:1026E000880B990B0E94FF079B01AC01C701B60143
:1026F0000E945C076B017C019B01AC0168897989B0
:102700008A899B890E94B408688B798B8A8B9B8B02
:10271000A70196016C897D898E899F890E945C073B
:102720006C8B7D8B8E8B9F8B1DA70CA7DF91CF9120
:102730001F910F91FF90EF90DF90CF9008952F920F
:102740003F924F925F926F927F928F929F92AF9241
:10275000BF92CF92DF92EF92FF920F931F93CF938E
:10276000DF93EC016A017B0148015901A90198013D
:10277000C701B6010E94AF0887FF4EC0CEA6DFA6F4
:10278000E8AAF9AA8AAA9BAAACAABDAA8EA98823FC
:1027900009F442C02C8C3D8CF10140805180628054
:1027A0007380A3019201C501B4010E94570787FFFE
:1027B00006C0F10180829182A282B3820DC0A30182
:1027C0009201C701B6010E94AF0818162CF4F1015E
:1027D000C082D182E282F3828CA09DA0AEA0BFA075
:1027E000CAA8DBA8ECA8FDA8A7019601C501B40101
:1027F0000E94AF08181664F0CEA4DFA4E8A8F9A8D8
:10280000A7019601C501B4010E94570787FF04C0C4
:10281000CCA2DDA2EEA2FFA2DF91CF911F910F917A
:10282000FF90EF90DF90CF90BF90AF909F908F90F0
:102830007F906F905F904F903F902F9008958F9270
:102840009F92AF92BF92CF92DF92EF92FF92CF937F
:10285000DF93EC01EC8DFD8DC080D180E280F380B0
:10286000CCA2DDA2EEA2FFA2EA8DFB8D8081918138
:10287000A281B38188A799A7AAA7BBA78AA89BA86A
:10288000ACA8BDA8A5019401C701B6010E94AF087C
:10289000181664F08EA49FA4A8A8B9A8A501940155
:1028A000C701B6010E94570787FF04C08CA29DA2F2
:1028B000AEA2BFA2DF91CF91FF90EF90DF90CF90BB
:1028C000BF90AF909F908F9008951F93CF93DF9309
:1028D000EC0111E06130710509F010E09EA981E082
:1028E0008927181303C0CE010E941F141EABDF916D
:1028F000CF911F9108950F931F93CF93DF93EC0116
:102900008B018EA9882361F1888D998D8617970791
:1029100039F12C853D854E855F8560E070E0CB0107
:102920000E94EA066C877D878E879F872889398970
:102930004A895B8960E070E0CB010E94EA06688BFF
:10294000798B8A8B9B8B2C893D894E895F8960E0CE
:1029500070E0CB010E94EA066C8B7D8B8E8B9F8B87
:10296000198F088FDF91CF911F910F9108952F92AA
:102970003F924F925F926F927F928F929F92AF920F
:10298000BF92CF92DF92EF92FF920F931F93CF935C
:10299000DF93CDB7DEB728970FB6F894DEBF0FBE32
:1029A000CDBF4C017A8369831A013C832B832701B5
:1029B0003801AD82BE82CF82D88600E010E02FE7DA
:1029C00033E440E050E0BA010E949F1384E690E0B7
:1029D000F40195A784A769A17AA1C4010E947B1480
:1029E000CD8CDE8CEF8CF8A00D811E812F81388577
:1029F000B301A201C4010E949B120E94D20FF401F4
:102A000044A455A4052C000C66087708DC01CB0112
:102A100084199509A609B70980A391A3A2A3B3A31A
:102A200016AA358E248E89819A81938F828F8B810D
:102A30009C81978F868F28960FB6F894DEBF0FBEC5
:102A4000CDBFDF91CF911F910F91FF90EF90DF905D
:102A5000CF90BF90AF909F908F907F906F905F903E
:102A60004F903F902F900895CF93CFB7F8948091D7
:102A7000AC03811127C0E7E6F1E08491E8E4F1E0DE
:102A80009491E82FF0E0EE0FFF1FED57FE4FA59158
:102A9000B491EC91E92321F461E081E10E944A11B3
:102AA00061E081E10E940E118CB580618CBD8CB516
:102AB00080648CBD61E08FE00E940E1161E080E1D6
:102AC0000E940E118091AC038F5F8093AC03CFBF47
:102AD000CF910895CF93DF931F92CDB7DEB769836F
:102AE000DC01ED91FC910280F381E02D41E050E0AA
:102AF000BE016F5F7F4F09950F90DF91CF910895D1
:102B0000CF93DF93EC018C859D8597FF05C082E014
:102B10000E944C0C9D878C878C859D85DF91CF9181
:102B2000089583E00C94DE0EFC018485958597FD65
:102B300006C082E00E94F70B90E00196089582E0C3
:102B40000E94F70B90E00895FC018485958597FD20
:102B500005C02FEF3FEF35872487089582E00C945E
:102B60004C0CCF93DF93EC0180915101882331F01D
:102B700083E00E947D0C1816190634F081E090E085
:102B80009B838A8380E090E0DF91CF910895FC01E0
:102B900090819E5F908342E450E061E971E080E8BB
:102BA0000C941D0DFC0181819081913A59F4813280
:102BB00009F05CC047E050E06AE471E080E00E9408
:102BC0001D0D52C0913209F051C0833269F48281E7
:102BD0009381A0E0B0E08093460190934701A093D9
:102BE0004801B093490140C0803239F467E070E099
:102BF0008AE491E00E94440D05C08232A9F58281E9
:102C0000809351018091FD03882319F0EEEFFAE0E3
:102C100002C0E0E0F8E080914A0190914B01A09160
:102C20004C01B0914D01803B9440A105B10501F5E7
:102C30008091510180FD1CC0EE3F2AE0F20731F087
:102C4000808191819093FF0A8093FE0A87E797E73E
:102C5000918380839BE088E10FB6F894A8958093D8
:102C600060000FBE9093600081E0089580E00895B9
:102C70000FB6F894A89580916000886180936000F9
:102C8000109260000FBEA895EE3F8AE0F80739F079
:102C90008091FE0A9091FF0A91838083E5CF109284
:102CA000FF0A1092FE0AE0CFEDEAF3E013821282EF
:102CB00088EE93E0A0E0B0E084839583A683B78399
:102CC00085EB91E0918380838FEF9FEF95878487D9
:102CD00008950895EF92FF920F931F93CF93DF9380
:102CE0007B01FC01C281D38100E010E0209781F0DC
:102CF000E881F9810280F381E02DB701CE010995C9
:102D000097FD08C0080F191F0884D985C02DEECF84
:102D1000C80102C08FEF9FEFDF91CF911F910F91FC
:102D2000FF90EF9008950F931F93CF93DF938B0144
:102D3000FC01C281D381209771F0E881F981048080
:102D4000F581E02DB801CE010995009731F4088492
:102D5000D985C02DF0CF80E090E0DF91CF911F9119
:102D60000F9108950F931F93CF93DF938B01FC0175
:102D7000C281D381209771F0E881F9810680F781C3
:102D8000E02DB801CE010995080F111D0884D985E1
:102D9000C02DF0CFF8011082DF91CF911F910F91DC
:102DA00008950F931F93CF93DF938B01FC01C28192
:102DB000D381209771F0E881F9810190F081E02DB5
:102DC000B801CE010995811105C00884D985C02DAF
:102DD000F0CF80E0DF91CF911F910F910895809106
:102DE000020481110DC082E08093FE0384E0809391
:102DF000FF03109201041092000481E0809302040A
:102E00008EEF93E00895A1E21A2EAA1BBB1BFD01D1
:102E10000DC0AA1FBB1FEE1FFF1FA217B307E407B9
:102E2000F50720F0A21BB30BE40BF50B661F771F11
:102E3000881F991F1A9469F76095709580959095F1
:102E40009B01AC01BD01CF010895EE0FFF1F05905E
:0A2E5000F491E02D0994F894FFCFEF
:102E5A00CDCCCC3D6F12033ACDCCCC3D0000003F27
:102E6A006F12033ACDCCCC3D0000003F6F12033AFB
:102E7A00CDCCCC3D0000003F6F12033ACDCCCC3D07
:102E8A000000003F010101010E000000964300C14D
:102E9A00808100000001FFFFFFFF00E10000000049
:102EAA0000007472795F6D653A202000616861687C
:102EBA00616861212100456E636F64657273204900
:102ECA006E697469616C697A65642E2E2E00456E8E
:102EDA00636F6465727320436C65617265642E2E3C
:102EEA002E00000000007E09EF0A21093B092D0986
:102EFA00C5090D0A006E616E00696E66006F76661E
:102F0A0000000000006A15B1159415A415801591EA
:022F1A001500A0
:00000001FF
